:020000040000FA
:100000000A128A11D02FF4000A128A153C230A1210
:100010008A11D0300A128A1587230A128A110030F9
:100020000A128A1587230A128A110A128A15442392
:100030000A128A110A128A153C230A128A11D13037
:100040000A128A1587230A128A1101300A128A15A8
:1000500052240A128A11F30074088400730883136F
:10006000800001300A128A1552240A128A11F30004
:10007000740A840073088313800001300A128A1501
:1000800052240A128A11F3007408023E8400730895
:100090008313800001300A128A1552240A128A1131
:1000A000F3007408033E840073088313800001305A
:1000B0000A128A1552240A128A11F3007408043EA7
:1000C000840073088313800001300A128A155224B9
:1000D0000A128A11F3007408053E84007308831322
:1000E000800000300A128A1552240A128A11F30085
:1000F0007408063E84007308831380000A128A1570
:1001000044230A128A110800F400F3017408F00075
:1001100003300310F00CFF3E031D89287008F10026
:100120007108F20074080739F0007008F4000B2918
:100130000130F000740A9E280310F00DFF3E031DED
:100140009C287008831203130505031DA828AA28FC
:100150000130AB280030F1007108F3002429013090
:10016000F000740AB5280310F00DFF3E031DB328FC
:100170007008831203130605031DBF28C128013030
:10018000C2280030F1007108F30024290130F0008A
:10019000740ACC280310F00DFF3E031DCA28700816
:1001A000831203130705031DD628D8280130D92848
:1001B0000030F1007108F30024290130F000740AC6
:1001C000E3280310F00DFF3E031DE12870088312A1
:1001D00003130805031DED28EF280130F028003037
:1001E000F1007108F30024290130F000740AFA28A4
:1001F0000310F00DFF3E031DF8287008831203134F
:100200000905031D04290629013007290030F100E2
:100210007108F30024297208F000F1017108003A16
:100220000319132924297008003A03199828013A60
:100230000319AF28033A0319C628013A0319DD2828
:10024000073A0319F4282429730808000930831297
:100250000313E3006308A0000A30E4006408A1006F
:10026000FF30E5006508A200FF30E6006608A30045
:10027000FF30E7006708A400FF30E8006808A50029
:100280000C30E9006908A6000D30EA006A08A700F2
:100290000E30EB006B08A8000F30EC006C08A900D2
:1002A00008300A128A11EA210A128A1110308312C8
:1002B0000313E3006308FC0002300A128A154C267F
:1002C0000A128A110A128A1530240A128A11103071
:1002D00083120313E300630883160313B100403055
:1002E00083120313E300630883160313B000AF0106
:1002F000B301B30AB401B40A163083120313E30046
:10030000630883160313B500053083120313E3005B
:10031000630883160313B200AF300A128A15A826A9
:100320000A128A11AF300A128A1103200A128A11A6
:1003300000300A128A15DD230A128A11831603136C
:10034000310883120313E300E4016308C300640867
:10035000C40083160313300883120313E500E6017B
:100360006508C5006608C600831603132F088312AC
:100370000313E700E8016708C7006808C800831690
:100380000313330883120313E900EA016908C90063
:100390006A08CA0083160313340883120313EB00A0
:1003A000EC016B08CB006C08CC00831603133508F6
:1003B00083120313ED00EE016D08CD006E08CE0030
:1003C00001300A128A11A5250A128A1192290A12ED
:1003D0008A110028F6007608F500750883160313C5
:1003E000A300831203132008F50075088316031376
:1003F000A400831203132108F50075088316031364
:10040000A500831203132208F50075088316031351
:10041000A600831203132308F5007508831603133F
:10042000A700831203132408F5007508831603132D
:10043000A800831203132508F5007508831603131B
:10044000A900831203132608F50075088316031309
:10045000AA00831203132708F500750883160313F7
:10046000AB00831203132808F500750883160313E5
:10047000AC00831203132908F500750883160313D3
:10048000AD0083120313220A0319472A482A572A68
:10049000230A03194C2A4D2A572A240A0319512AE0
:1004A000522A572A250A031D562A572A5E2A043043
:1004B000F500750883160313A200882A0830F5009A
:1004C000750883160313A200F00183120313220898
:1004D0000A128A11C6220A128A11F001831203132A
:1004E00023080A128A11C6220A128A11F001831205
:1004F000031324080A128A11C6220A128A11F00173
:100500008312031325080A128A11C6220A128A11BD
:10051000F00176080A128A11C6220A128A11F00125
:100520008312031320080A128A11C6220A128A11A2
:10053000F0018312031321080A128A11C6220A123B
:100540008A11F0018312031326080A128A11C622A7
:100550000A128A11F0018312031327080A128A1162
:10056000C6220A128A11F0018312031328080A1204
:100570008A11C6220A128A11F00183120313290874
:100580000A128A11C6220A128A110800F40074089D
:10059000F10003300310F10CFF3E031DCA2A71085D
:1005A000F2007208F30074080739F1007108F400D2
:1005B000972B70080319DD2ADE2AEE2A0130F1009C
:1005C000740AE42A0310F10DFF3E031DE22A7108AC
:1005D000F2007208831603138504B02B0130F1007A
:1005E000740AF42A0310F10DFF3E031DF22A71086C
:1005F000FF3AF2007208831603138505B02B7008CA
:100600000319032B042B142B0130F100740A0A2B5D
:100610000310F10DFF3E031D082B7108F200720854
:10062000831603138604B02B0130F100740A1A2BD1
:100630000310F10DFF3E031D182B7108FF3AF20065
:100640007208831603138605B02B70080319292B33
:100650002A2B3A2B0130F100740A302B0310F10DD4
:10066000FF3E031D2E2B7108F20072088316031340
:100670008704B02B0130F100740A402B0310F10DF8
:10068000FF3E031D3E2B7108FF3AF20072088316ED
:1006900003138705B02B700803194F2B502B602BC9
:1006A0000130F100740A562B0310F10DFF3E031DBB
:1006B000542B7108F2007208831603138804B02BC0
:1006C0000130F100740A662B0310F10DFF3E031D8B
:1006D000642B7108FF3AF200720883160313880531
:1006E000B02B70080319752B762B862B0130F10087
:1006F000740A7C2B0310F10DFF3E031D7A2B710849
:10070000F2007208831603138904B02B0130F10044
:10071000740A8C2B0310F10DFF3E031D8A2B710808
:10072000FF3AF2007208831603138905B02B730891
:10073000F100F2017208003A03199F2BB02B7108E7
:10074000003A0319D92A013A0319FF2A033A031977
:10075000252B013A03194B2B073A0319712BB02BA8
:100760000800F4007408F10003300310F10CFF3EA0
:10077000031DB52B7108F2007208F30074080739E5
:10078000F1007108F400822C70080319C82BC92BE2
:10079000D92B0130F100740ACF2B0310F10DFF3E6D
:1007A000031DCD2B7108F200720883120313850418
:1007B0009B2C0130F100740ADF2B0310F10DFF3E7A
:1007C000031DDD2B7108FF3AF20072088312031338
:1007D00085059B2C70080319EE2BEF2BFF2B0130A6
:1007E000F100740AF52B0310F10DFF3E031DF32BEE
:1007F0007108F20072088312031386049B2C0130E7
:10080000F100740A052C0310F10DFF3E031D032CAB
:100810007108FF3AF20072088312031386059B2CBD
:1008200070080319142C152C252C0130F100740AC2
:100830001B2C0310F10DFF3E031D192C7108F20053
:1008400072088312031387049B2C0130F100740A91
:100850002B2C0310F10DFF3E031D292C7108FF3ACC
:10086000F20072088312031387059B2C700803198A
:100870003A2C3B2C4B2C0130F100740A412C031014
:10088000F10DFF3E031D3F2C7108F2007208831228
:10089000031388049B2C0130F100740A512C0310BF
:1008A000F10DFF3E031D4F2C7108FF3AF200720854
:1008B0008312031388059B2C70080319602C612C8C
:1008C000712C0130F100740A672C0310F10DFF3E0A
:1008D000031D652C7108F20072088312031389044A
:1008E0009B2C0130F100740A772C0310F10DFF3EB0
:1008F000031D752C7108FF3AF2007208831203136E
:1009000089059B2C7308F100F2017208003A031963
:100910008A2C9B2C7108003A0319C42B013A031945
:10092000EA2B033A0319102C013A0319362C073A23
:1009300003195C2C9B2C080083120313C1000230A6
:100940004106031DA42CA52CEB2CE52C2408A900A2
:100950002508AA002608AB002708AC002808FF3E9F
:10096000AD00AD0A0130AE000030AF00BA2C03106C
:10097000AE0DAF0DAD0BB72C2E08B0002F08B10097
:100980000030B11BFF30B200B3003008A9053108B8
:10099000AA053208AB053308AC052C082B042A0441
:1009A0002904031DD42CD62C0130D72C0030B400E0
:1009B0003408C2004208303E0A128A1577240A120F
:1009C0008A11013083120313A8022808031DE92CA1
:1009D000EA2CA62CA42D2708260425042404031D94
:1009E000F22CF32CFA2C30300A128A1577240A12D2
:1009F0008A11A42DC2016C2D270826042504240485
:100A00000319032D042D572D4108A9002908A00022
:100A10002708F7002608F6002508F5002408F4004A
:100A20004108AA00AB01AC01AD012D08F3002C0870
:100A3000F2002B08F1002A08F0000A128A15042798
:100A40000A128A1170080A128A15AF230A128A1133
:100A5000831203132402AE004208353E84002E08A0
:100A6000831380004108A900AA01AB01AC012C0846
:100A7000F3002B08F2002A08F1002908F0002708EB
:100A8000F7002608F6002508F5002408F4000A12ED
:100A90008A1504270A128A11730883120313A70008
:100AA0007208A6007108A5007008A400682D280A25
:100AB00003195B2D5C2D9F2D0B302802031C612D2B
:100AC000622D632D9F2D4208353E840083138001E3
:100AD0000130A9002908C20728084202031C712D11
:100AE000722DFC2C9F2D4208FF3E353E84000A30BB
:100AF0008313000203187D2D7E2D8A2D4208FF3EB0
:100B0000353E84000008303EBF000030031801303D
:100B1000C000952D4208FF3E353E84000008373E58
:100B2000BF00003003180130C0003F080A128A15C8
:100B300077240A128A11013083120313C202420879
:100B4000031DA32DA42D732D080083120313D200BF
:100B50004330CF004F08E2005208CF004F08DF00BB
:100B6000C32F5F0884000A128A1500200A128A1116
:100B7000CF004F08E00025306006031DC02DC12DB9
:100B8000B72F0130CF004F08DF075F0884000A123B
:100B90008A1500200A128A11CF004F08E000303079
:100BA0006002031CD42DD52D092E3A3060020318A3
:100BB000DA2DDB2D092EE101FC2D0A30CF004F0884
:100BC000A00061080A128A15AF230A128A11831243
:100BD00003136007D03ED0005008E1000130CF0081
:100BE0004F08DF075F0884000A128A1500200A12E6
:100BF0008A11CF004F08E00030306002031C012E44
:100C0000022E0E2E3A306002031C072E082EDD2D18
:100C10007F2FFF30CF004F08E1007F2F7F2F62082A
:100C2000840083130008CF004F08E0000230CF009B
:100C30004F08E20760080A128A1577240A128A11FF
:100C4000BD2F6208840083130008D700840A0008BF
:100C5000D8000230CF004F08E207D81F302E312EC7
:100C60003C2ED709D809D70A0319D80A2D300A1201
:100C70008A1577240A128A11831203135708A400D5
:100C80005808A5000030A51BFF30A600A70061088A
:100C9000CF004F08A8000A300A128A119C240A12B9
:100CA0008A11BD2F6208840083130008D300840AD0
:100CB0000008D400840A0008D500840A0008D60081
:100CC0000430CF004F08E207D61F672E682E792E1A
:100CD000D309D409D509D609D30A0319D40A0319AB
:100CE000D50A0319D60A2D300A128A1577240A125A
:100CF0008A11831203135608A7005508A60054084A
:100D0000A5005308A4006108CF004F08A8000A30CE
:100D10000A128A119C240A128A11BD2F62088400CB
:100D200083130008DD00840A0008DE000230CF00D3
:100D30004F08E2075D08A4005E08A500A601A70110
:100D40006108CF004F08A8000A300A128A119C24BB
:100D50000A128A11BD2F6208840083130008D9008B
:100D6000840A0008DA00840A0008DB00840A00080C
:100D7000DC000430CF004F08E2075C08A7005B08E6
:100D8000A6005A08A5005908A4006108CF004F0822
:100D9000A8000A300A128A119C240A128A11BD2F57
:100DA0006208840083130008DD00840A0008DE0066
:100DB0000230CF004F08E2075D08A4005E08A500DE
:100DC000A601A7016108CF004F08A80010300A1241
:100DD0008A119C240A128A11BD2F62088400831391
:100DE0000008D900840A0008DA00840A0008DB0041
:100DF000840A0008DC000430CF004F08E2075C08DA
:100E0000A7005B08A6005A08A5005908A4006108BD
:100E1000CF004F08A80010300A128A119C240A1231
:100E20008A11BD2F6208840083130008DD00840A44
:100E30000008DE000230CF004F08E207610A031D00
:100E4000222F232F272F1030CF004F08E1005D08FD
:100E5000A4005E08A500A601A7016108CF004F0805
:100E6000A80002300A128A119C240A128A11BD2F8E
:100E70006208840083130008D900840A0008DA009D
:100E8000840A0008DB00840A0008DC000430CF007C
:100E90004F08E207610A031D4E2F4F2F532F1030CA
:100EA000CF004F08E1005C08A7005B08A6005A08C5
:100EB000A5005908A4006108CF004F08A80002301F
:100EC0000A128A119C240A128A11BD2F620884001A
:100ED00083130008CF004F08D1000130CF004F0826
:100EE000E20751080A128A15F8230A128A11BD2F47
:100EF00025300A128A1577240A128A11BD2F60083C
:100F0000CF00D0015008003A0319872FBD2F4F089A
:100F1000253A0319782F673A0319382F013A031934
:100F20000F2E073A0319522E023A0319B62F153A1B
:100F30000319662F063A0319AB2E0D3A0319ED2E4D
:100F40003A3A0319122F013A03190F2E073A0319DF
:100F5000212E023A0319BD2F153A0319662F063ABE
:100F600003198E2E0D3A0319D02EBD2FBD2F600808
:100F70000A128A1577240A128A1101308312031388
:100F8000CF004F08DF075F0884000A128A1500208F
:100F90000A128A11003A031DCE2FCF2FB12D08005F
:100FA000831603130A128A1538230A128A11B6000F
:100FB0000A128A1539230A128A11B7000A128A15F1
:100FC0003A230A128A11B8000A128A153B230A1220
:100FD0008A11B900A001A101A201A301A401A501E8
:100FE000A601A701A801A901AA01AB01AC01AD01AD
:100FF000AE0183120313EF0183010A128A1126291D
:1010000008308A000408840A820700347434693482
:101010006D3465343A342534323478343A342534F6
:10102000323478343A34253432347834203420342D
:101030000A3444346134743465343A3425343234F7
:1010400078342F342534323478342F342534323404
:0410500078340034BC
:101670008034C0349034D0348316031311141118FD
:10168000422B432B3F2B080083160313111511190E
:101690004A2B4B2B472B080083160313911211166C
:1016A000111A532B542B502B080083160313911639
:1016B0001116111A5C2B5D2B592B080001300A12F0
:1016C0008A15FD240A128A1500300A128A15DD23B4
:1016D0000A128A150800722B0130F0020030031C38
:1016E000F103F10270087104031D772B782B6C2B2A
:1016F00008008316031387150716941728308312E2
:101700000313940032308316031393000800F00093
:101710007008831203139300831603131418912B7C
:10172000922B8C2B0A128A15C6230A128A150800DE
:10173000A82B2C30F0000130F1000A128A156B231F
:101740000A128A150130F2020030031CF303F3027F
:1017500072087304031DAD2BAE2B992B0800831266
:101760000313A300A201231CB62BB72BBB2B20080D
:10177000A1002108A2070310A00D0310A30C230849
:10178000031DC32BC42BB32B22080800831603139D
:101790001118CB2BCC2BC62B9118CF2BD02BC62BB3
:1017A0001119D32BD42BC62B9119D72BD82BC62B81
:1017B0001419DB2BDC2BC62B0800FB00831603134C
:1017C00020087B020318E52BE62BF72BAE017B08E4
:1017D000FA007A0883120313EF007B08B63E8400F8
:1017E000831300080A128A15FD240A128A150800BC
:1017F00083120313A0000A2C2008840000080A1298
:101800008A1577240A128A150130FD007D0883129B
:101810000313A0072008840083130008031D112C64
:10182000122CFC2B08000130FA007A0883120313F3
:10183000EF0783160313AE012008831203136F0210
:10184000031C232C242C252CEF016F08B63E8400AA
:10185000831300080A128A15FD240A128A1508004B
:101860000A128A1579230A128A150A128A153C234C
:101870000A128A15D0300A128A1587230A128A158D
:1018800007300A128A1587230A128A1500300A12B5
:101890008A1587230A128A150A128A1544230A1206
:1018A0008A150800F100831603139115141C592C96
:1018B0005A2C562C831203131308F0007008F20000
:1018C0000A128A15C6230A128A157103031D692C90
:1018D0006A2C702C0A128A154C230A128A15752C50
:1018E0000A128A1555230A128A1572080800FC008C
:1018F0008316031321082E0203187F2C802C862CBC
:101900000A307C06031D852C862C8B2C0A128A1526
:1019100013240A128A150A307C060319902C912C84
:101920009D2C7C080A128A1536250A128A15013068
:10193000FB007B0883160313AE070800F001831633
:10194000031323080A128A11B1230A128A15F0011F
:101950008316031324080A128A11B1230A128A1566
:10196000F001F00A8316031325080A128A11B12325
:101970000A128A150A30F0000030F1000A128A15A6
:101980006B230A128A15F0018316031325080A1225
:101990008A11B1230A128A150800F001F00A831691
:1019A000031323080A128A11B1230A128A15F001BF
:1019B0008316031324080A128A11B1230A128A1506
:1019C000F001F00A8316031325080A128A11B123C5
:1019D0000A128A150A30F0000030F1000A128A1546
:1019E0006B230A128A15F0018316031325080A12C5
:1019F0008A11B1230A128A150800F9000A128A1501
:101A00006A270A128A150830831603132206031D5B
:101A10000A2D0B2D122D79080A128A15B5250A12E6
:101A20008A152A2D79080A128A156F250A128A1535
:101A30000A128A159E240A128A157908F7000330C3
:101A40000310F70DFF3E031D202D0310770DF80046
:101A50007808F90079080A128A156F250A128A1582
:101A60000A128A159E240A128A150800F9000A1221
:101A70008A156A270A128A1508308316031322066C
:101A8000031D432D442D4B2D79080A128A15B525C7
:101A90000A128A15632D79080A128A156F250A120F
:101AA0008A150A128A15CD240A128A157908F700B8
:101AB00003300310F70DFF3E031D592D0310770D62
:101AC000F8007808F90079080A128A156F250A12B9
:101AD0008A150A128A15CD240A128A150800F60002
:101AE000761A732D752D0130762D0030F5007508AE
:101AF000F000831603132A080A128A11B1230A126E
:101B00008A15F61A842D862D0130872D0030F500B8
:101B10007508F000831603132B080A128A11B123EB
:101B20000A128A15761B952D972D0130982D0030BD
:101B3000F5007508F000831603132C080A128A11A9
:101B4000B1230A128A15F61BA62DA82D0130A92D46
:101B50000030F5007508F000831603132D080A12F3
:101B60008A11B1230A128A150800F6007618B92DD9
:101B7000BB2D0130BC2D0030F5007508F000831638
:101B8000031326080A128A11B1230A128A15F618BD
:101B9000CA2DCC2D0130CD2D0030F5007508F00098
:101BA0008316031327080A128A11B1230A128A1511
:101BB0007619DB2DDD2D0130DE2D0030F5007508A6
:101BC000F0008316031328080A128A11B1230A129F
:101BD0008A15F619EC2DEE2D0130EF2D0030F500B1
:101BE0007508F0008316031329080A128A11B1231D
:101BF0000A128A15080030300A128A156F250A1257
:101C00008A150A128A159E240A128A156430F20077
:101C10000030F3000A128A1598230A128A15303010
:101C20000A128A156F250A128A150A128A159E242D
:101C30000A128A15C830F0000030F1000A128A1525
:101C40006B230A128A1530300A128A156F250A1280
:101C50008A150A128A159E240A128A15C830F000C5
:101C60000030F1000A128A156B230A128A152030FF
:101C70000A128A156F250A128A150A128A159E24DD
:101C80000A128A15C830F0000030F1000A128A15D5
:101C90006B230A128A15080083120313A0007C0824
:101CA000FD007D0883160313A1008312031320088F
:101CB000FD007D0883160313A00003308312031375
:101CC0002002031C642E652E732E7C080F39903E73
:101CD000FD007D0883160313B8007C080F39D03E41
:101CE000FD007D08B9006430F2000030F3000A12F4
:101CF0008A1598230A128A150830831603132206C0
:101D0000031D832E842E8B2E38300A128A15FD2453
:101D10000A128A159C2E04302206031D902E912E45
:101D20009C2E0A128A15FB250A128A1528300A12DF
:101D30008A15FD240A128A150E300A128A15FD240E
:101D40000A128A150A128A155E230A128A150800D9
:101D5000F1000A128A153C230A128A15D0300A12A1
:101D60008A1587230A128A1500300A128A158723DA
:101D70000A128A1571088400831300080A128A1552
:101D800087230A128A15710A8400831300080A1235
:101D90008A1587230A128A157108023E840083136C
:101DA00000080A128A1587230A128A157108033E51
:101DB0008400831300080A128A1587230A128A15E1
:101DC0007108043E8400831300080A128A158723D1
:101DD0000A128A157108053E8400831300080A124E
:101DE0008A1587230A128A157108063E8400831318
:101DF00000080A128A1587230A128A150A128A1500
:101E000044230A128A1508000030FC000030FB0051
:101E10000030FA000030F900730872047104700495
:101E20000319132F142F612FFD01FD0A242F0130F8
:101E3000F8000310F00DF10DF20DF30DF80B192F52
:101E40000130F8007808FD07F31F272F282F172FE0
:101E50000130F8000310F90DFA0DFB0DFC0DF80B25
:101E60002A2F73087702031D3F2F72087602031D85
:101E70003F2F71087502031D3F2F70087402031C69
:101E8000422F432F522F7008F4027108031C710F68
:101E9000F5027208031C720FF6027308031C730F1D
:101EA000F702791401300310F30CF20CF10CF00C72
:101EB000FF3E031D532F0130FD02031D602F612FD4
:101EC000282F7C08F3007B08F2007A08F1007908DB
:101ED000F000080083160313240A0319702F712FD2
:101EE000F62FF001F00A2D080A128A11C6220A12F2
:101EF0008A15F0018316031323080A128A11B123ED
:101F00000A128A15F001F00A8316031324080A1234
:101F10008A11B1230A128A15F001831603132508CA
:101F20000A128A11B1230A128A150A30F000003011
:101F3000F1000A128A156B230A128A15F001F00AC1
:101F40008316031325080A128A11B1230A128A156F
:101F50000A30F0000030F1000A128A156B230A12D1
:101F60008A15831603132D080A128A1184200A1277
:101F70008A15F5007508F60004308316031322064F
:101F8000031DC32FC42FE72FF00125080A128A1161
:101F9000B1230A128A150A30F0000030F1000A124B
:101FA0008A156B230A128A15F001F00A83160313AF
:101FB00025080A128A11B1230A128A150A30F00084
:101FC0000030F1000A128A156B230A128A1576086E
:101FD000031DEB2FEC2F8C2FF001831603132D081C
:101FE0000A128A11C6220A128A15FF2F0130F20046
:101FF0000030F3000A128A1598230A128A15080085
:02400E003A3F37
:00000001FF
