:060000000A128A11122809
:10000800FE00030E83120313C7000408C8000A0881
:10001800C9007F08CA000A128A11202E0A128A1102
:10002800152883135F30FD000F30FE00AE30FF004F
:10003800553084000A128A15CA270A128A11CB0180
:10004800CC01CD01CE01CF01D001D101D201D30124
:10005800D40183010A128A11E42F8312031323089F
:100068008039AD002308A8002807B300A21F3D2847
:100078003E283F28331433080319432844285328BB
:10008800330A031D4828492851280030A3000030AE
:10009800A2000030A1000030A000A2175B280030A9
:1000A800A3000030A2000030A1000030A000270803
:1000B8008039A8002808AD062708A8002807B2003C
:1000C800A61F6728682869283214320803196D2882
:1000D8006E287D28320A031D722873287B28003079
:1000E800A7000030A6000030A5000030A400A61725
:1000F80085280030A7000030A6000030A500003099
:10010800A4003208031989288A288F283308031D78
:100118008E288F2898280030A3000030A2000030D5
:10012800A1000030A000752B2008F00026080A1254
:100138008A15D9270A128A11710883120313B90084
:100148007008B8003808A800A901AA01AB012B085B
:10015800B1002A08B0002908AF002808AE00390805
:10016800A800A901AA01AB012B08B7002A08B6000C
:100178002908B5002808B4002108F00025080A124B
:100188008A15D9270A128A11710883120313B90034
:100198007008B8003808A800A901AA01AB0128080E
:1001A800AE07290803110318013E0319DC28AF071D
:1001B8002A0803110318013E0319E328B0072B0886
:1001C80003110318013E0319EA28B1073908A800EA
:1001D800A901AA01AB012808B407290803110318CB
:1001E800013E0319F828B5072A0803110318013E30
:1001F8000319FF28B6072B0803110318013E03193A
:100208000629B7072208F00024080A128A15D927F8
:100218000A128A11710883120313B9007008B80012
:100228003808A800A901AA01AB012808AE072908C7
:1002380003110318013E03192229AF072A080311E5
:100248000318013E03192929B0072B0803110318C5
:10025800013E03193029B1073908A800A901AA01EC
:10026800AB012808B407290803110318013E031934
:100278003E29B5072A0803110318013E0319452929
:10028800B6072B0803110318013E03194C29B707B9
:100298000830A8000310AE0DAF0DB00DB10DA80BBE
:1002A8004E292108F00024080A128A15D9270A12B3
:1002B8008A11710883120313B9007008B80038084E
:1002C800A8003908A900AA01AB012808AE07290827
:1002D80003110318013E03197229AF072A080311F5
:1002E8000318013E03197929B0072B0803110318D5
:1002F800013E03198029B1072008F00025080A12D9
:100308008A15D9270A128A11710883120313B900B2
:100318007008B8003808A8003908A900AA01AB017C
:100328002808AE07290803110318013E03199D295F
:10033800AF072A0803110318013E0319A429B007BF
:100348002B0803110318013E0319AB29B107083024
:10035800A8000310AE0DAF0DB00DB10DA80BAD295F
:100368002008F00024080A128A15D9270A128A11CF
:10037800710883120313B9007008B8003808A80080
:100388003908A900AA01AB012808AE0729080311FA
:100398000318013E0319D129AF072A0803110318CE
:1003A800013E0319D829B0072B0803110318013E91
:1003B8000319DF29B1072108F00026080A128A1557
:1003C800D9270A128A11710883120313B900700819
:1003D800B8003808A8003908A900AA01AB01280804
:1003E800B407290803110318013E0319FC29B507AE
:1003F8002A0803110318013E0319032AB6072B081C
:1004080003110318013E03190A2AB7072208F0004E
:1004180025080A128A15D9270A128A117108831227
:100428000313B9007008B8003808A8003908A900F3
:10043800AA01AB012808B407290803110318013ED3
:100448000319272AB5072A0803110318013E0319BF
:100458002E2AB6072B0803110318013E0319352A63
:10046800B7072208F00026080A128A15D9270A12A7
:100478008A11710883120313B9007008B80038088C
:10048800A8003908A900AA01AB0108300310A80D7B
:10049800A90DAA0DAB0DFF3E031D4A2A2808B40773
:1004A800290803110318013E03195B2AB5072A0816
:1004B80003110318013E0319622AB6072B0803111A
:1004C8000318013E0319692AB7072E08A8002F0848
:1004D800A9003008AA003108AB0018300310AB0C93
:1004E800AA0CA90CA80CFF3E031D722A2808B40701
:1004F800290803110318013E0319832AB5072A089E
:1005080003110318013E03198A2AB6072B080311A1
:100518000318013E0319912AB7070830A8000310F1
:10052800AE0DAF0DB00DB10DA80B932A33083207ED
:10053800A800A901A90D2808823EB80029080318B7
:10054800013EFF3EB900C52A0130A8000310B40DD2
:10055800B50DB60DB70DA80BAA2AB11FB42AB52A36
:10056800B62A34140130A8000310AE0DAF0DB00D3B
:10057800B10DA80BB82AFF30B8070318B90AFF3025
:10058800B907B61FC82AC92AA82AB201B11FCD2A9D
:10059800CE2AEA2AFF302E05A800FF302F05A90031
:1005A800FF303005AA007F303105AB002B082A0444
:1005B800290428040319E12AE22AE52AB201B20A29
:1005C800EA2A341CE82AE92AEA2AE22A3208031924
:1005D800EE2AEF2A202B0130B4070030031801302F
:1005E800B507003003180130B60700300318013092
:1005F800B707371C002B012B202B3408A80035081F
:10060800A9003608AA003708AB000130AC002B0D52
:10061800AB0CAA0CA90CA80CAC0B0B2B2B08B70025
:100628002A08B6002908B5002808B4000130B80720
:100638000318B90A0030B9073908803AFF0080303A
:100648007F02031D292BFF303802031C2C2B2D2B76
:10065800382B7F3083120313B7008030B600003088
:10066800B5000030B400692B831203133908803AAF
:10067800FF0080307F02031D432B0130380203182E
:10068800462B472B532B003083120313B70000303F
:10069800B6000030B5000030B400AD01692B8312FC
:1006A80003133808B300FF30B405FF30B5057F30B9
:1006B800B6050030B705331C622B632B642BB617C5
:1006C8003308A8000310280CB7002D08A800280834
:1006D800B7043708A3003608A2003508A10034087B
:1006E800A0000800F800780803197B2B7C2B902BBE
:1006F800F31F7F2B802B902B7009FA007109FB00E8
:100708007209FC007309FD00FA0A0319FB0A0319B0
:10071800FC0A0319FD0A982B7308FD007208FC00F7
:100728007108FB007008FA00730872047104700401
:10073800031D9F2BA02BA92B0030F3000030F200E3
:100748000030F1000030F0002D2C9630F900B92B64
:100758000130F4007408F90701300310FD0CFC0C9B
:10076800FB0CFA0CFF3E031DB12BFE307D05031D6B
:10077800BE2BBF2BAC2BDB2B0130F4007408F90720
:100788000130FA07003003180130FB070030031866
:100798000130FC07003003180130FD070130031059
:1007A800FD0CFC0CFB0CFA0CFF3E031DD32BFF3099
:1007B8007D05031DE02BE12BC02BED2B0130F90249
:1007C8000130F4000310FA0DFB0DFC0DFD0DF40BC8
:1007D800E62BFC1BF02BF12BF72B023079020318C8
:1007E800F62BF72BE22B7918FA2BFB2B032CFF3077
:1007F800FA05FF30FB057F30FC05FF30FD050310CF
:10080800F90C7908F400F501F601F7011830031026
:10081800F40DF50DF60DF70DFF3E031D0B2C7408B6
:10082800FA047508FB047608FC047708FD047808C8
:1008380003191F2C202C252CF31F232C242C252CAA
:10084800FD177D08F3007C08F2007B08F1007A08A8
:10085800F0000800FF3083120313860000300A12EC
:100868008A11DA240A128A11831203134E08F3003C
:100878004D08F2004C08F1004B08F0000A128A11EA
:10088800AC260A128A11700883120313C50064305B
:10089800F7000030F8004508BE00BF013E08F90027
:1008A8003F08FA000A128A1122270A128A117708C9
:1008B80083120313C2000A30F7000030F80045081D
:1008C800BE00BF013E08F2003F08F3006430F000AC
:1008D8000030F1000A128A118B270A128A11710856
:1008E800FA007008F9000A128A1122270A128A11DE
:1008F800770883120313C3004508BE00BF013E08F2
:10090800F2003F08F3006430F0000030F1000A12F2
:100918008A118B270A128A11710883120313C100E6
:100928007008C0000A30F0000030F1004108F30000
:100938004008F2000A128A118B270A128A117008DD
:1009480083120313C400C62C8711071587144208A5
:10095800553E8400831300088600D92C871507119B
:1009680087144308553E8400831300088600D92C59
:100978008715071587104408553E8400831300081F
:100988008600D92C5308BE00BF013F08003A03195E
:10099800CE2CD92C3E08003A0319A82C013A031989
:1009A800B22C033A0319BC2CD92C08008312031368
:1009B800BD00E62C9F111F129F12F62C9F151F12C7
:1009C8009F12F62C3D08BA00BB013B08003A0319F8
:1009D800EE2CF62C3A08003A0319DE2C013A0319DA
:1009E800E22CF62C1F14023083120313BC0045308E
:1009F800BB00A930BA00BA0BFF2CBB0BFF2CBC0BF9
:100A0800FF2C831203131F151F190B2D0C2D082DF6
:100A18001E08D0001E08CF0000305002CD30031948
:100A28004F02031C182D192D4B2D3E30A3007A3090
:100A3800A2004330A100FE30A0004F08333EF00072
:100A480050080318013EFF3EF100F201F3010030A7
:100A58000A128A1176230A128A1173088312031361
:100A6800A7007208A6007108A5007008A4000A1261
:100A78008A1131200A128A11831203132308CE0027
:100A88002208CD002108CC002008CB007D2D3E3067
:100A9800A3007A30A2004330A100FE30A000CD3080
:100AA800BA004F083A02F00050090318013EF1005D
:100AB800F201F30100300A128A1176230A128A1110
:100AC800730883120313A7007208A6007108A50013
:100AD8007008A4000A128A1131200A128A1183129E
:100AE80003132308CE002208CD002108CC002008DB
:100AF800CB00080000307005F80000307105F900DF
:100B080080307205FA007F307305FB007B087A0499
:100B180079047804031D912D922D9A2D0030F3004D
:100B28000030F2000030F1000030F00000307405B1
:100B3800F80000307505F90080307605FA007F303E
:100B48007705FB007B087A0479047804031DAD2D32
:100B5800AE2DB62D0030F7000030F6000030F5005D
:100B68000030F400F31FB92DBA2DDE2D0030F80047
:100B78000030F9000030FA008030FB007008F802FD
:100B88007108031C710FC92DCA2DF9027208031CC4
:100B9800720FCF2DD02DFA027308031C730FD52DB9
:100BA800D62DFB027B08F3007A08F2007908F100E1
:100BB8007808F000F71FE12DE22D062E0030F8002E
:100BC8000030F9000030FA008030FB007408F802A9
:100BD8007508031C750FF12DF22DF9027608031C18
:100BE800760FF72DF82DFA027708031C770FFD2DE5
:100BF800FE2DFB027B08F7007A08F6007908F5005D
:100C08007808F4008030F3068030F706770873021E
:100C1800031D182E76087202031D182E750871021E
:100C2800031D182E7408700203181B2E1C2E1E2E6E
:100C380003101F2E031408008B1E232E242E9F2E14
:100C48000B1D272E282E9F2E053081000B110130F9
:100C5800C6004608D4070130D1070318D20A00306D
:100C6800D20705305406031D3A2E3B2E4E2E013076
:100C7800C6004608D30704305306031D442E452EEC
:100C8800462ED3010A128A112E240A128A118312BF
:100C98000313D4014E08F3004D08F2004C08F1008C
:100CA8004B08F0004230F700C830F6000030F5007D
:100CB8000030F4000A128A117E250A128A11031CD8
:100CC800662E672E7F2EF430831203135106031D00
:100CD800712E5203031D712E722E7F2E0310071CD6
:100CE80003140318782E7C2E8312031307147F2E07
:100CF80083120313071083120313D101D2014E0884
:100D0800F3004D08F2004C08F1004B08F0004230A7
:100D1800F700C830F6000030F5000030F4000A1281
:100D28008A117E250A128A1103189B2E9C2E9F2E4B
:100D3800831203130714831203134A08FF00490898
:100D48008A0048088400470E8300FE0E7E0E0900C4
:100D58000310720D730DF9007908031DB42EB52E1A
:100D6800BE2E0030F3000030F2000030F1000030F9
:100D7800F000212F7008F4007108F5007208F600E1
:100D88007308F7001F300310F70CF60CF50CF40C81
:100D9800FF3E031DC72E7408F800F217FF30F00558
:100DA800FF30F105FF30F2050030F3059630F90207
:100DB800F91FDF2EE02EFA2E7908803A973E0318A5
:100DC800E62EE72EE82EB52E01300310F30CF20CB8
:100DD800F10CF00CFF3E031DE92E0130F4007408FD
:100DE800F907031DF82EF92EE82E112F203079026D
:100DF800031CFF2E002F0C2FB52E0130F40003101A
:100E0800F00DF10DF20DF30DF40B032F0130F90283
:100E18007908031D102F112F012F78080319152F9A
:100E2800162F212FF009F109F209F309F00A031925
:100E3800F10A0319F20A0319F30A080083120313CB
:100E4800A101F81F282F292F302FF709F809F70AD1
:100E58000319F80AA101A10AFA1F332F342F3D2FD5
:100E6800F909FA09F90A0319FA0A0130FB007B08A3
:100E7800A106A201A301770878040319442F452F7E
:100E88007C2FA001A00A532F01300310F70DF80D95
:100E9800FF3E031D492F0130FB007B08A007F81F08
:100EA800562F572F482F01300310A20DA30DFF3ED8
:100EB800031D582F78087A02031D642F77087902DA
:100EC800031C672F682F6F2F7708F9027808031C17
:100ED800FA03FA02221401300310F80CF70CFF3E53
:100EE800031D702F0130A002031D7B2F7C2F572F6D
:100EF80021080319802F812F862FA209A309A20A8E
:100F08000319A30A2308F8002208F7000800F601CD
:100F1800F31F8F2F902F972FF209F309F20A031965
:100F2800F30AF601F60AF11F9A2F9B2FA02FF0095A
:100F3800F109F00A0319F10A700871040319A52FC1
:100F4800A62FD52FF501F50AB42F01300310F00DA7
:100F5800F10DFF3E031DAA2F0130F4007408F507B8
:100F6800F11FB72FB82FA92F71087302031DBE2FC9
:100F780070087202031CC12FC22FC82F7008F2021A
:100F88007108031CF303F30201300310F10CF00C99
:100F9800FF3E031DC92F0130F502031DD42FD52FA5
:100FA800B82F76080319D92FDA2FDF2FF209F309A2
:100FB800F20A0319F30A7308F1007208F000080036
:100FC80083160313071086018714071187110A1265
:100FD8008A15B8270A128A110A128A15A5270A1231
:0A0FE8008A11F52F0A128A1112284F
:101F4A00C430831603139F008030831203139F004B
:101F5A000800C034F934A434B03499349234823449
:101F6A00F8348034903483160313811281110114DA
:101F7A008114011105308312031381008B168B170C
:101F8A0008007E088A007F0882000A128A15C6277E
:101F9A000A128A158000840A04087D06031900348F
:101FAA00FF0A0319FE0ACA2FF800F401F5017008A6
:101FBA00F200F3017208F6007308F700781CE62FA6
:101FCA00E72FED2F7608F4070318F50A7708F507C7
:101FDA0001300310F60DF70DFF3E031DEE2F03101F
:101FEA00F80C7808031DFA2FFB2FE32F7508F10070
:061FFA007408F00008006D
:08400000FF3FFF3FFF3FFF3FC0
:02400E00FA3F77
:00000001FF
