:060000000A128A11EC2F28
:100CEC008034403420341034083404340234013459
:100CFC007E088A007F0882000A128A117E260A1258
:100D0C008A118000840A04087D0603190034FF0A46
:100D1C000319FE0A822EB72EF90108307902031C42
:100D2C00982E992E9A2EB42E7908203E8400831387
:100D3C0000088312031388000330F4008A30F30098
:100D4C005530F200F20BA82EF30BA82EF40BA82EA4
:100D5C00AF2E0130F2007208F907932E83120313A1
:100D6C0088010130F0020030031CF103F102700A1B
:100D7C00031DC42E710A031DC42EC52E922E08000D
:100D8C000130F5000030F6000B2F8312031388019D
:100D9C000330F4008A30F3005530F200F20BD42EFD
:100DAC00F30BD42EF40BD42EDB2E75088312031305
:100DBC008800F90108307902031CE52EE62EE72E97
:100DCC00082F7608F3007508F2000310F20DF30DEE
:100DDC007208F5047308F60475088312031388006F
:100DEC000330F4008A30F3005530F200F20BFC2E85
:100DFC00F30BFC2EF40BFC2E032F0130F2007208C7
:100E0C00F907E02E8312031388010130F002003041
:100E1C00031CF103F102700A031D182F710A031D44
:100E2C00182F192FCB2E0800F501732FF90108305C
:100E3C007902031C222F232F242F702FFA01482F05
:100E4C007A0AF2008030F3000030F400302F740D79
:100E5C00F40CF30CF20B2D2F73087504831203138F
:100E6C0088000230F4000430F300BA30F200F20BC8
:100E7C003D2FF30B3D2FF40B3D2F00000130F20002
:100E8C007208FA070030F3007908083CF200031CE2
:100E9C00F3037308803A803C031D562F72087A02C4
:100EAC00031C592F5A2F262F831203130808F50001
:100EBC000230F4000430F300BA30F200F20B642F6D
:100ECC00F30B642FF40B642F00000130F200720856
:100EDC00F9071D2F8312031388010130F002003033
:100EEC00031CF103F102700A031D802F710A031D0C
:100EFC00802F812F1C2F080083160317890188016E
:100F0C008316031306148614811315149514880183
:100F1C008312031388010618942F952FAE2F0D30D2
:100F2C00F800FB30F700F70B992FF80B992F9E2F39
:100F3C00A82F0130F0000030F1000A128A1191261E
:100F4C000A128A1183120313061CAD2FAE2F9F2F8A
:100F5C008618B12FB22FCB2F0D30F800FB30F700D5
:100F6C00F70BB62FF80BB62FBB2FC52F0130F000A7
:100F7C000030F1000A128A11C6260A128A11831255
:100F8C000313861CCA2FCB2FBC2F0619CE2FCF2FA5
:100F9C00912F0D30F800FB30F700F70BD32FF80B27
:100FAC00D32FD82FE22F0130F0000030F1000A12BD
:100FBC008A111A270A128A1183120313061DE72FAE
:100FCC00E82FD92F912F0A128A1100288313283069
:100FDC00FD000630FE007630FF00203084000A123F
:100FEC008A1182260A128A11F901FA0183010A1266
:040FFC008A11822FA5
:08400000FF3FFF3FFF3FFF3FC0
:04400E00D223FF3F7B
:00000001FF
