:060000000A128A110C280F
:10000800FE00030EF6000A08F7000A128A111928E2
:100018000A128A110F28F001F101F201F301F4012B
:10002800F50183010A128A114F288B1E1C281D28EE
:1000380048280B1D2028212848280530831203133F
:1000480081000B110130F2070318F30A0030F3079F
:100058000130F0070318F10A0030F10705183528B8
:10006800362839280714F201F301740803193D28CA
:100078003E284828D0307206073003197306031D3E
:10008800462847284828071077088A00760E8300F4
:10009800FE0E7E0E09000630831603139F0005141A
:1000A800071085158710F4010A128A117C200A129C
:1000B8008A117408031D612862286A2883120313B1
:1000C800051C672868286A28F401F40A83120313B8
:1000D80005186F2870285D28F4018519742875287B
:1000E800772887105D2887145D280A128A110C2842
:1000F8008316031381128111011481140111053033
:0C0108008312031381008B168B17080074
:08400000FF3FFF3FFF3FFF3FC0
:02400E00FA3F77
:00000001FF
