:060000000A128A11EA2F2A
:100D54008316031789018801831603138701880109
:100D64000A128A11E2260A128A11B22E0A128A1172
:100D740000287E088A007F0882000A128A11BB2696
:100D84000A128A118000840A04087D0603190034BB
:100D9400FF0A0319FE0ABF2E90348034F8348234DB
:100DA40092349934B034A434F934C034C034F934AE
:100DB400A434B034993492348234F8348034903486
:100DC4001730FC007C08031DE82EE92EEA2E292F9B
:100DD4000A30F0000030F1007C08F900FA017908CB
:100DE400F2007A08F3000A128A1183270A128A1180
:100DF40070082A3E840083130008831203138700BB
:100E04000A30F0000030F1007C08F900FA0179089A
:100E1400F2007A08F3000A128A112A270A128A11A8
:100E240070082A3E84008313000883120313880089
:100E34000230FB008630FA009930F900F90B202FBC
:100E4400FA0B202FFB0B202F0130FC02E42E0800AC
:100E5400F601F31F2E2F2F2F362FF209F309F20A72
:100E64000319F30AF601F60AF11F392F3A2F3F2F1F
:100E7400F009F109F00A0319F10A70087104031961
:100E8400442F452F742FF501F50A532F0130031019
:100E9400F00DF10DFF3E031D492F0130F4007408DD
:100EA400F507F11F562F572F482F71087302031DA2
:100EB4005D2F70087202031C602F612F672F70086A
:100EC400F2027108031CF303F30201300310F10C66
:100ED400F00CFF3E031D682F0130F502031D732F34
:100EE400742F572F76080319782F792F7E2FF20944
:100EF400F309F20A0319F30A7308F1007208F00007
:100F04000800F601F11F872F882F8F2FF009F109B0
:100F1400F00A0319F10AF601F60AF31F922F932F30
:100F24009C2FF209F309F20A0319F30A0130F400C1
:100F34007408F606F701F801700871040319A32F69
:100F4400A42FDB2FF501F50AB22F01300310F00DA9
:100F5400F10DFF3E031DA82F0130F4007408F507BE
:100F6400F11FB52FB62FA72F01300310F70DF80D81
:100F7400FF3E031DB72F71087302031DC32F7008B2
:100F84007202031CC62FC72FCE2F7008F2027108FD
:100F9400031CF303F302771401300310F10CF00C7B
:100FA400FF3E031DCF2F0130F502031DDA2FDB2F87
:100FB400B62F76080319DF2FE02FE52FF709F8097C
:100FC400F70A0319F80A7808F1007708F000080016
:100FD40083133430FD000630FE00CE30FF00203095
:100FE40084000A128A11BF260A128A11B401B501BB
:0C0FF400B601FD0183010A128A11AA2E29
:08400000FF3FFF3FFF3FFF3FC0
:04400E00D223FF3F7B
:00000001FF
