:060000000A128A11CA2F4A
:100E8C0001340234043408341034203440348034B7
:100E9C0083160317890188018316031388018312B3
:100EAC00031388010A128A1174270A128A11582F07
:100EBC000A128A1100287E088A007F0882000A1212
:100ECC008A1161270A128A118000840A04087D069F
:100EDC0003190034FF0A0319FE0A652FFB01FC01FC
:100EEC0008307C02031C7B2F7C2F7D2FC92FFD012A
:100EFC00A12F7D0AF8008030F9000030FA00892F0C
:100F0C007A0DFA0CF90CF80B862F79087B048312F6
:100F1C00031388000330FA008A30F9005530F800CA
:100F2C00F80B962FF90B962FFA0B962F9D2F01305D
:100F3C00F8007808FD070030F9007C08083CF80040
:100F4C00031CF9037908803A803C031DAF2F780805
:100F5C007D02031CB22FB32F7F2F831203130808BB
:100F6C00FB000330FA008A30F9005530F800F80B1A
:100F7C00BD2FF90BBD2FFA0BBD2FC42F0130F8007C
:100F8C007808FC07762F08000A128A1146270A12E5
:100F9C008A11F0000A128A1147270A128A11F100ED
:100FAC000A128A1148270A128A11F2000A128A11AF
:100FBC0049270A128A11F3000A128A114A270A12C7
:100FCC008A11F4000A128A114B270A128A11F500B1
:100FDC000A128A114C270A128A11F6000A128A1177
:100FEC004D270A128A11F700FC01FD0183010A1238
:040FFC008A114E2FD9
:08400000FF3FFF3FFF3FFF3FC0
:04400E00D223FF3F7B
:00000001FF
