:060000000A128A110C280F
:10000800FE00030EF6000A08F7000A128A117D287E
:100018000A128A110F28F001F101F201F301F4012B
:10002800F50183010A128A11BA2883120313880181
:10003800F401F50100307502043003197402031C41
:1000480026282728282849280130F800740A2E284D
:100058000310F80DFF3E031D2C28780883120313A4
:1000680088000330FA008A30F9005530F800F80BA0
:100078003B28F90B3B28FA0B3B2842280130F407B0
:100088000318F50A0030F5071E28831203138801A8
:10009800F401F50100307502043003197402031CE1
:1000A8005628572858287C28740AF8000830F90080
:1000B8000030FA0062287A0DFA0CF90CF80B5F2868
:1000C80079088312031388000330FA008A30F90094
:1000D8005530F800F80B6E28F90B6E28FA0B6E28CD
:1000E80075280130F4070318F50A0030F5074E2883
:1000F8000800831203138C1C82288328B3288C10D1
:100108000130F0070318F10A0030F10700307102DE
:10011800153003197002031C922893289528F001C2
:10012800F101003071020B300319700203189D2889
:100138009E28A0280714B328003071020A3003193A
:100148007002031CA828A928B328003071021530B2
:10015800031970020318B128B228B32807107708CA
:100168008A00760E8300FE0E7E0E09000A128A119E
:10017800CF200A128A11831603138701880183127C
:10018800031388010A128A1119200A128A11C62833
:100198000A128A110C28E6308312031391000430E6
:1001A8009200831603138C14831203138C108B177D
:0401B8000B17080019
:08400000FF3FFF3FFF3FFF3FC0
:02400E00FF3F72
:00000001FF
