:060000000A128A11FC2F18
:100F880083160317890188018316031387018312C7
:100F9800031387018316031389018312031389013D
:100FA80083120313870189010330F2008A30F100AC
:100FB8005530F000F00BDE2FF10BDE2FF20BDE2F99
:100FC800E52F0430831203138700023089000330B1
:100FD800F2008A30F1005530F000F00BF12FF10BE0
:100FE800F12FF20BF12FF82FD42F0A128A110028B3
:080FF80083010A128A11C42FC3
:08400000FF3FFF3FFF3FFF3FC0
:04400E00D223FF3F7B
:00000001FF
