:060000000A128A11FC2F18
:100F7A003030F0007530F1000A128A11DD270A12AA
:100F8A008A1108008316031789018801831603133F
:100F9A0009118910831289140A128A11BD270A12AB
:100FAA008A11831203138910CF2F0A128A1100287B
:100FBA00ED2FE7308312031381000B1183160313FD
:100FCA0081128B120B138B138111011181100110E5
:100FDA000130F0020030031CF103F102700A031D14
:100FEA00FA2F710A031DFA2FFB2FDE2F0800830147
:060FFA000A128A11C72F44
:08400000FF3FFF3FFF3FFF3FC0
:04400E00D223FF3F7B
:00000001FF
