:060000000A128A110E280D
:10000800FE00030EF8000408F9000A08FA000A12B4
:100018008A11F0280A128A11112883132830FD004A
:100028000130FE00AA30FF00203084000A128A1135
:100038009B210A128A11FB01FC0183010A128A1111
:100048008D28F5017E28FB0108307B02031C2D2832
:100058002E282F287B28FC0153287C0AF2008030A8
:10006800F3000030F4003B28740DF40CF30CF20B91
:100078003828730875048312031388000230F400CB
:100088000430F300BA30F200F20B4828F30B48288A
:10009800F40B482800000130F2007208FC07003019
:1000A800F3007B08083CF200031CF3037308803A52
:1000B800803C031D612872087C02031C64286528A3
:1000C8003128831203130808F5000230F4000430C5
:1000D800F300BA30F200F20B6F28F30B6F28F40B21
:1000E8006F2800000130F2007208FB0728288312ED
:1000F800031388010130F0020030031CF103F10200
:10010800700A031D8B28710A031D8B288C28272849
:1001180008008316031789018801831603138801D1
:100128008312031388018316031309100615061991
:100138009E28A228831603138614A5288316031362
:1001480086108618A828AC28831603130614AF282F
:100158008316031306108113073095000B108B17B5
:100168008B1516151619B928BD288316031396146E
:10017800C0288316031396109618C328C728831619
:1001880003131614CA2883160313161083120313B5
:100198000914033083120313AA008A30A9005530CA
:1001A800A800A80BD528A90BD528AA0BD5288312F7
:1001B80003130910033083120313AA008A30A9001D
:1001C8005530A800A80BE628A90BE628AA0BE628B4
:1001D800CA280A128A110E288B100B1083120313D7
:1001E8000618F728F8280D290D30F700FB30F6001F
:1001F800F60BFC28F70BFC28012907290A128A119B
:1002080072210A128A1183120313061C0C290D2964
:10021800022986181029112926290D30F700FB30EC
:10022800F600F60B1529F70B15291A2920290A12A9
:100238008A114C210A128A1183120313861C25295C
:1002480026291B29061929292A2943290D30F700AF
:10025800FB30F600F60B2E29F70B2E2933293D2902
:100268000130F0000030F1000A128A1125200A122C
:100278008A1183120313061D4229432934297A0857
:100288008A0079088400780E8300FE0E7E0E09002D
:10029800FB0108307B02031C5229532954296E297B
:1002A8007B08203E84008313000883120313880010
:1002B8000330F2008A30F1005530F000F00B62296B
:1002C800F10B6229F20B622969290130F0007008EC
:1002D800FB074D298312031388010800FF3083129E
:1002E800031388000330F2008A30F1005530F00023
:1002F800F00B7C29F10B7C29F20B7C2983298312D2
:10030800031388010330F2008A30F1005530F00001
:10031800F00B8C29F10B8C29F20B8C299329831271
:100328000313880108007E088A007F0882000A12E9
:100338008A1197210A128A118000840A04087D060E
:1003480003190034FF0A0319FE0A9B29803440343C
:0C03580020341034083404340234013422
:08400000FF3FFF3FFF3FFF3FC0
:04400E00D223FF3F7B
:00000001FF
