:060000000A128A11EE2F26
:100C4C004034793424343034193412340234783446
:100C5C00003410347E088A007F0882000A128A1140
:100C6C0030260A128A118000840A04087D060319B2
:100C7C000034FF0A0319FE0A342EF601F31F472E27
:100C8C00482E4F2EF209F309F20A0319F30AF60162
:100C9C00F60AF11F522E532E582EF009F109F00AC4
:100CAC000319F10A7008710403195D2E5E2E8D2E46
:100CBC00F501F50A6C2E01300310F00DF10DFF3E1D
:100CCC00031D622E0130F4007408F507F11F6F2E1E
:100CDC00702E612E71087302031D762E700872023D
:100CEC00031C792E7A2E802E7008F2027108031CD8
:100CFC00F303F30201300310F10CF00CFF3E031D63
:100D0C00812E0130F502031D8C2E8D2E702E76084F
:100D1C000319912E922E972EF209F309F20A031958
:100D2C00F30A7308F1007208F0000800831603132D
:100D3C00860187010130880083120313881AA72EBD
:100D4C00A82ECE2E0B3083120313A9006130A800FD
:100D5C00A80BAE2EA90BAE2EB32EF73083120313B5
:100D6C00AA00FF30AB002B08FA002A08F9000A127F
:100D7C008A1160270A128A11013083120313AA0701
:100D8C000318AB0A0030AB07AB1BCD2ECE2EB92E01
:100D9C00AC01AD01831203132D08FA002C08F900E5
:100DAC000A128A1160270A128A1183120313881AF5
:100DBC00E02EE12EE22EA22E0130AC070318AD0A74
:100DCC000030AD072D08803AFF0080307F02031DF4
:100DDC00F12E64302C02031CF42EF52ED02EA22EF4
:100DEC000A128A110028F601F11FFD2EFE2E052F86
:100DFC00F009F109F00A0319F10AF601F60AF31FDA
:100E0C00082F092F122FF209F309F20A0319F30A1A
:100E1C000130F4007408F606F701F801700871044B
:100E2C000319192F1A2F512FF501F50A282F01300C
:100E3C000310F00DF10DFF3E031D1E2F0130F400C9
:100E4C007408F507F11F2B2F2C2F1D2F01300310C9
:100E5C00F70DF80DFF3E031D2D2F71087302031DB6
:100E6C00392F70087202031C3C2F3D2F442F700841
:100E7C00F2027108031CF303F30277140130031020
:100E8C00F10CF00CFF3E031D452F0130F502031D44
:100E9C00502F512F2C2F76080319552F562F5B2FBF
:100EAC00F709F809F70A0319F80A7808F100770826
:100EBC00F0000800FA1F632F642F862F7909FB00BE
:100ECC007A09FC00FB0A0319FC0A7B088312031342
:100EDC00A4007C08A5008710071224082E3E84006D
:100EEC008313000886001530FD004B30FC00BE302B
:100EFC00FB00FB0B7F2FFC0B7F2FFD0B7F2F0000CC
:100F0C00FA1B892F8A2FED2F0A30F0000030F100E8
:100F1C007A08F3007908F2000A128A11F9260A12EB
:100F2C008A11710883120313A1007008A0000A3003
:100F3C00F0000030F1007A08F3007908F2000A1290
:100F4C008A1143260A128A11710883120313A30013
:100F5C007008A200A601A7018312031387102008B2
:100F6C002E3E84008313000886001A30FC00F830F3
:100F7C00FB00FB0BBF2FFC0BBF2F000083120313D6
:100F8C008714071222082E3E840083130008860063
:100F9C001A30FC00F830FB00FB0BD22FFC0BD22FCD
:100FAC0000008312031307160130A6070318A70AC3
:100FBC000030A7072708803AFF0080307F02031D0E
:100FCC00E92F64302602031CEC2FED2FB22F080002
:100FDC0083133830FD000630FE002630FF002E3023
:100FEC0084000A128A1134260A128A1183010A1209
:040FFC008A119C2E8C
:08400000FF3FFF3FFF3FFF3FC0
:02400E003E3F33
:00000001FF
