:100000000A128A11FC2FFF1B0D2883137F188317F8
:100010000008840A0319FF0A080000308A00040857
:10002000840A820700340134003410340034003470
:100030000134003410343034313432343334343415
:1000400035343634373438343934613462346334D7
:10005000643465346634003428346E3475346C345A
:060060006C342934003469
:1007CA00F1008312031306108610710888000615BB
:1007DA0006114230F000F00BF02B00000800F10087
:1007EA00F0013A3071020318FB2BFC2B042C303039
:1007FA007102031C012C022C042CF001F00A700C6B
:10080A000800F300F201731C0B2C0C2C102C70083E
:10081A00F1007108F2070310F00D0310F30C7308CE
:10082A00031D182C192C082C7208080082300A1291
:10083A008A11E5230A128A1128300A128A115024D1
:10084A000A128A1106300A128A1150240A128A11CF
:10085A000E300A128A1150240A128A110800F10075
:10086A0083120313061486107108880006150611F0
:10087A007108F00003300310F00DFF3E031D402CF9
:10088A000310700D8800061506114230F000F00BB7
:10089A004C2C00000800F100831203130610861086
:1008AA0071088800061506117108F000033003105C
:1008BA00F00DFF3E031D5C2C0310700D8800061519
:1008CA0006114230F000F00B682C00000800F50019
:1008DA00F301F401812C73087507F2007208840091
:1008EA0000080A128A1134240A128A110130F30705
:1008FA000318F40A0030F40773087507F200720847
:10090A00840083130008031D8B2C8C2C702C080088
:10091A0083160313860188010A128A111B240A12FC
:10092A008A11C0300A128A1150240A128A116830B8
:10093A00F8002F300A128A1117250A128A112F304D
:10094A000A128A116C240A128A11AA2C0A128A1112
:10095A000028F401F501701CB32CB42CBA2C7208CF
:10096A00F4070318F50A7308F50701300310F20DAE
:10097A00F30DFF3E031DBB2C01300310F10CF00CEC
:10098A00FF3E031DC22C70087104031DCD2CCE2C12
:10099A00B02C7508F1007408F0000800F501F601A2
:1009AA00700871040319DA2CDB2C122DF701F70AEF
:1009BA00E92C01300310F00DF10DFF3E031DDF2C71
:1009CA000130F4007408F707F11FEC2CED2CDE2C33
:1009DA0001300310F50DF60DFF3E031DEE2C7108D4
:1009EA007302031DFA2C70087202031CFD2CFE2CE4
:1009FA00052D7008F2027108031CF303F302751443
:100A0A0001300310F10CF00CFF3E031D062D0130DE
:100A1A00F702031D112D122DED2C7608F100750831
:100A2A00F000080083120313AA007930A100E52F11
:100A3A0025302E060319222D232D2D2D2A08840058
:100A4A002E08831380000130F9007908AA07E52FE0
:100A5A00AB01AC01A601A701372DA6150130F9009B
:100A6A007908F807780884000A128A110D200A12F8
:100A7A008A11F900FA017A08003A0319452D4A2D1C
:100A8A0079082D3A0319322D4A2D780884000A1262
:100A9A008A110D200A128A110A128A11F4230A12E3
:100AAA008A11031C592D5A2D9A2D83120313AB0157
:100ABA00AC010A30F0000030F100831203132C0855
:100ACA00F3002B08F2000A128A11AE240A128A11C4
:100ADA00710883120313AC007008AB007808840015
:100AEA000A128A110D200A128A11D03EF900FF302B
:100AFA0003180030FA007908AB070318AC0A7A0821
:100B0A00AC070130F9007908F807780884000A125E
:100B1A008A110D200A128A110A128A11F4230A1262
:100B2A008A110318992D9A2D5E2D780884000A12CD
:100B3A008A110D200A128A112E3A031DA52DA62DFF
:100B4A00DC2D8312031327170130F9007908F807FF
:100B5A00AD01CB2D831203132D08F0000A300A12BF
:100B6A008A1106240A128A1183120313AD00780827
:100B7A0084000A128A110D200A128A11D03EF90045
:100B8A007908AD070130F9007908F8077808840078
:100B9A000A128A110D200A128A110A128A11F423E2
:100BAA000A128A110318DA2DDB2DAF2DAE2E83120D
:100BBA000313AD01AE2E210884000008A400003002
:100BCA00A5000130F9007908A10724082504031DAE
:100BDA00EF2DF02DF42D1A30A4008030A500A801C5
:100BEA00A901FD2D0130A8070318A90A0030A90799
:100BFA0028082407840025080318250AFF000A127A
:100C0A008A1103200A128A11003A031D0D2E0E2E94
:100C1A00F72D2D080319122E132E2F2E2D08F90049
:100C2A00FA01F91BFA037A08803AFB002908803A8C
:100C3A007B02031D222E280879020318252E262E50
:100C4A002F2E831203132D08F900FA017908A80040
:100C5A007A08A900831203132C082902031D372ED0
:100C6A002B08280203183A2E3B2E422E2808AB02E4
:100C7A002908031CAC03AC02442EAB01AC01A61933
:100C8A00472E482E7A2E522E2A08840020308313AB
:100C9A0080000130F9007908AA07FF30AB07031872
:100CAA00AC0AFF30AC072B0A031D5F2E2C0A031D6A
:100CBA005F2E602E492E7A2E2508FF002408840014
:100CCA000A128A1103200A128A11F9002A088400DA
:100CDA007908831380000130A4070318A50A00309D
:100CEA00A5070130F9007908AA070130A8020030E7
:100CFA00031CA903A902280A031D872E290A031D1A
:100D0A00872E882E612EA61D8B2E8C2EE52F962ED1
:100D1A002A0884002030831380000130F900790802
:100D2A00AA07FF30AB070318AC0AFF30AC072B0A3F
:100D3A00031DA32E2C0A031DA32EA42E8D2EE52FF0
:100D4A002E30A4000030A5000130A8000030A90010
:100D5A000E2E0130F807FF30780784000A128A1134
:100D6A000D200A128A1183120313AE00F900FA0148
:100D7A007A08003A0319C22EA52E7908003A0319F7
:100D8A00F72F703A0319D02E033A0319E02D0B3AC4
:100D9A000319D02EA52E210884000008A200840A77
:100DAA000008A3000230F9007908A1072D08031DE5
:100DBA00DF2EE02EEA2E22082304031DE52EE62E5E
:100DCA00EA2E0130F9007908AD07AE01AE0A043007
:100DDA002E06031DF12EF22EF32E192F2E08F900DE
:100DEA007907013E84000A128A110D200A128A111B
:100DFA00FA000A128A110D200A128A11FB007B08D6
:100E0A002302031D0A2F7A08220203180D2F0E2F20
:100E1A000F2F192F0130F9007908AE0704302E067A
:100E2A00031D182F192FF32E2D08F900FA01F91BAB
:100E3A00FA037A08803A803C031D252F79082E028E
:100E4A000318282F292F2E2F831203132D08AE00E3
:100E5A00462F831203132D08F900FA01F91BFA032E
:100E6A007A08803AFB0080307B02031D3E2F2E0851
:100E7A0079020318412F422F462F831203132E089B
:100E8A00AD00831203132C08803A803C031D4F2FB8
:100E9A002B082E020318522F532F5F2F831203138E
:100EAA002E08F900FA017908AB027A08031CAC0390
:100EBA00AC02632F83120313AB01AC012B082C0481
:100ECA000319682F692FB42FA6196C2F6D2FB42F11
:100EDA002A0884002030831380000130F900790841
:100EEA00AA07FF30AB070318AC0AFF30AC072B0880
:100EFA002C04031D812F822F6D2FB42F2D08F9008A
:100F0A007907013E84000A128A110D200A128A11F9
:100F1A00F0000A128A110D200A128A11F100230820
:100F2A00F3002208F2000A128A11D3240A128A1143
:100F3A0070080F3983120313A0002008093E8400A9
:100F4A000A128A110D200A128A11AE002A08840098
:100F5A002E08831380000130F9007908AA07FF30B0
:100F6A00F9007908AD072D0A031DBC2FBD2F832F69
:100F7A00A61DC02FC12FE52F2C08803AFF00803014
:100F8A007F02031DCA2F01302B02031CCD2FCE2F47
:100F9A00E52F831203132A0884002030831380006C
:100FAA000130F9007908AA07FF30AB070318AC0A29
:100FBA00FF30AC072B082C04031DE42FE52FCE2F9E
:100FCA000130F807FF30780784000A128A110D20D1
:100FDA000A128A1183120313AE002E08031DF62F7C
:100FEA00F72F1D2D2A08840083138001080083012E
:060FFA000A128A118D2C81
:08400000FF3FFF3FFF3FFF3FC0
:02400E003A3F37
:00000001FF
