:060000000A128A1110280B
:10000800FE00030EF9000408FA000A08FB007F0846
:10001800FC000A128A1120280A128A111328831256
:100028000313A001A101A201A301A401A501A60136
:1000380083010A128A11E728831603138C1E2528C8
:1000480026288528831203138C1E2B282C28852804
:100058001A08FD002008213E84007D0883138000D3
:100068000130F6007608A00705302006031D3D285C
:100078003E288528A0010130F0000530F10000304D
:10008800F20021300A128A1190200A128A1170088F
:100098007104031D50285128702883120313091571
:1000A8000530F8000F30F700F130F600F60B5A284B
:1000B800F70B5A28F80B5A288312031309110B302F
:1000C800F8002630F7005D30F600F60B6928F70BCC
:1000D8006928F80B692870280730F0000430F1000F
:1000E8000030F20021300A128A1190200A128A1177
:1000F80070087104031D8128822885288312031340
:1001080009117C08FF007B088A007A088400790EB0
:100118008300FE0E7E0E0900F500C52875088400D0
:1001280083130008031999289A28AA2870088400BC
:100138000A128A11D6200A128A11F300750884005F
:10014800000873060319A928AA28BD287008840086
:100158000A128A11D6200A128A11F300750884003F
:100168000008F40073087402F000F101031CF103A5
:10017800D5280130F3007308F5070130F300730840
:10018800F0070130F1020030031CF203F202710A99
:10019800031DD228720A031DD228D3289228F00101
:1001A800F101080000308A000408840A820700343C
:1001B8007334743461347234743400347334743482
:1001C8006F34703400340630831603139F0009110E
:1001D8000A128A11F5200A128A11F1280A128A11C4
:1001E80010282030831603139800903083120313CD
:0E01F800980019308316031399008C16080026
:08400000FF3FFF3FFF3FFF3FC0
:02400E00FA3F77
:00000001FF
