:060000000A128A11EE2F26
:100D1C004034793424343034193412340234783475
:100D2C00003410347E088A007F0882000A128A116F
:100D3C0098260A128A118000840A04087D06031979
:100D4C000034FF0A0319FE0A9C2E70087104031963
:100D5C00B02EB12EE02EF501F50ABF2E0130031096
:100D6C00F00DF10DFF3E031DB52E0130F40074089B
:100D7C00F507F11FC22EC32EB42E71087302031D8A
:100D8C00C92E70087202031CCC2ECD2ED32E7008E7
:100D9C00F2027108031CF303F30201300310F10C8F
:100DAC00F00CFF3E031DD42E0130F502031DDF2E87
:100DBC00E02EC32E7308F1007208F0000800F50154
:100DCC00F601700871040319EC2EED2E242FF70197
:100DDC00F70AFB2E01300310F00DF10DFF3E031D41
:100DEC00F12E0130F4007408F707F11FFE2EFF2ED0
:100DFC00F02E01300310F50DF60DFF3E031D002FF4
:100E0C0071087302031D0C2F70087202031C0F2F44
:100E1C00102F172F7008F2027108031CF303F30252
:100E2C00751401300310F10CF00CFF3E031D182F4C
:100E3C000130F702031D232F242FFF2E7608F1001B
:100E4C007508F00008000130831203138700831625
:100E5C00031386018701880183120313A901AA01D8
:100E6C008312031329082D3E840083130008860087
:100E7C00033083120313A8000830A7007630A600B5
:100E8C00A60B462FA70B462FA80B462F00000130B0
:100E9C0083120313A9070318AA0A0030AA072A0809
:100EAC00803AFF0080307F02031D5E2F0A3029023A
:100EBC00031C612F622F362F83120313AB01AC017D
:100ECC00831203132C08F9002B08F8000A128A115C
:100EDC008A270A128A11013083120313AB070318F5
:100EEC00AC0A0030AC072C08803AFF0080307F023F
:100EFC00031D822F64302B02031C852F862F662F37
:100F0C00322F0A128A1100280A30F0000030F1004A
:100F1C007908F3007808F2000A128A11E5260A1201
:100F2C008A11710883120313A1007008A0000A3003
:100F3C00F0000030F1007908F3007808F2000A1292
:100F4C008A11AB260A128A11710883120313A300AB
:100F5C007008A200A401A5018312031320082D3EE2
:100F6C00840083130008880087101A30FB00F830C7
:100F7C00FA00FA0BBF2FFB0BBF2F000083120313D9
:100F8C00871422082D3E8400831300088800071262
:100F9C001A30FB00F830FA00FA0BD22FFB0BD22FD1
:100FAC0000008312031307160130A4070318A50AC7
:100FBC000030A5072508803AFF0080307F02031D12
:100FCC00E92F64302402031CEC2FED2FB22F080004
:100FDC0083133730FD000630FE008E30FF002D30BD
:100FEC0084000A128A119C260A128A1183010A12A1
:040FFC008A11292FFE
:08400000FF3FFF3FFF3FFF3FC0
:02400E003E3F33
:00000001FF
