:060000000A128A110C280F
:10000800FE00030EF3000A08F4000A128A114728BA
:100018000A128A110F2883010A128A1113288316DB
:10002800031789018801831603138812081206141E
:1000380081130130950001178B108B170B16831253
:10004800031388160330F7008A30F6005530F500A0
:10005800F50B2C28F60B2C28F70B2C2833288312A9
:10006800031388120330F7008A30F6005530F50084
:10007800F50B3C28F60B3C28F70B3C284328232893
:100088000A128A110C288B108312031308160330E6
:10009800F2008A30F1005530F000F00B5128F10BD6
:1000A8005128F20B512858288312031308120330E1
:1000B800F2008A30F1005530F000F00B6128F10BA6
:1000C8006128F20B6128682874088A00730E83007F
:0600D800FE0E7E0E090081
:08400000FF3FFF3FFF3FFF3FC0
:04400E00D223FF3F7B
:00000001FF
