:020000040000FA
:060000000A128A110E280D
:10000800FE00030EF9000408FA000A08FB000A12B1
:100018008A112B280A128A11112883133D30FD00FA
:100028000230FE003330FF00333084000A128A1198
:1000380018220A128A112030840033300A128A11D9
:100048003D22FC01FD0183010A128A11F7288B1A4F
:100058000B1D4C2805308312031381000B1101304E
:10006800A0070318A10A0030A10764302006210464
:10007800031D4C28A001A1010310091D0314031C32
:1000880049288312031309154C28831203130911F5
:10009800831603138C1CEE28831203138C1CEE2882
:1000A8008C100130A4070318A50A0030A5070530F5
:1000B80024062504031DEE28A401A5010A128A11AD
:1000C80049210A128A110130F8007808FC07043027
:1000D8007C060319FC01013083120313A2070318DD
:1000E800A30A0030A307193022062304031DEE28B3
:1000F800A201A301E830F0000330F1002908F30061
:100108002808F2000A128A1191210A128A1170082D
:10011800F800780883120313AF00E830F0000330CA
:10012800F1002908F3002808F2000A128A11CD21EB
:100138000A128A11710883120313A7007008A60017
:100148006430F0000030F1002708F3002608F200C0
:100158000A128A1191210A128A117008F800780887
:1001680083120313B0006430F0000030F100270858
:10017800F3002608F2000A128A11CD210A128A1108
:10018800710883120313A7007008A6000A30F00054
:100198000030F1002708F3002608F2000A128A113D
:1001A80091210A128A117008F80078088312031343
:1001B800B1000A30F0000030F1002708F3002608EB
:1001C800F2000A128A11CD210A128A117008F80069
:1001D8007808FD007B088A007A088400790E83007D
:1001E800FE0E7E0E09000630831603139F000516C7
:1001F8008516091489140911051085100511851132
:10020800880186010A128A1125220A128A110A1205
:100218008A11FF210A128A1183120313051E162957
:10022800AE01AE0A2E08031D051A1D29AE01A8014C
:10023800A901851E2129AD01AD0A2D08031D851AC6
:100248003529AD010130A8070318A90A0030A9070C
:1002580010302806273003192906031D3529A8015F
:10026800A901091C3929AC01AC0A2C08031D09187D
:100278001029AC0128082904031910290130A80203
:100288000030031CA903A9021029FF3083120313AD
:1002980088007A2985150510851405152F08333E21
:1002A80084008313000888000800051485100515CC
:1002B80085153008333E8400831300088800080041
:1002C80005148514051185153108333E8400831300
:1002D80000088800080005148514051585117D0897
:1002E800333E840083130008880008007C08F0006F
:1002F800F1017108003A0319822990297008003A1F
:1003080003194E29013A03195929033A0319642993
:10031800013A03196F2990290800F501F6017008C0
:1003280071040319C829F701F70AF11BA72901303D
:100338000310F00DF10DFF3E031D9C290130F40060
:100348007408F707992901300310F50DF60DFF3EE3
:10035800031DA82971087302031DB42970087202CD
:10036800031CBD297008F2027108031CF303F30291
:10037800751401300310F10CF00CFF3E031DBE296B
:100388000130F702031DA7297608F1007508F0006F
:100398000800700871040319FA29F501F50AF11B20
:1003A800E12901300310F00DF10DFF3E031DD629A0
:1003B8000130F4007408F507D32971087302031D8E
:1003C800E72970087202031CEF297008F20271080D
:1003D800031CF303F30201300310F10CF00CFF3E91
:1003E800031DF0290130F502031DE1297308F1000E
:1003F8007208F0000800831203131214921064307C
:100408008316031392008312031392151216921681
:1004180092161215831603138C140B178B170800EA
:100428007E088A007F08820014220A128A1180003E
:10043800840A04087D0603190034FF0A0319FE0A1A
:10044800182A8316031381128111011481140111D2
:1004580005308312031381008B168B170800C034F4
:10046800F934A434B034993492348234F834803472
:10047800903464008001840A0406031900340406D9
:020488003E2A0A
:02400E00F13F80
:00000001FF
