:060000000A128A110E280D
:10000800FE00030EF8000408F9000A08FA000A12B4
:100018008A11CE2D0A128A111128FB01FC01FD015B
:1000280083120313D701D801D901DA01DB01DC01FE
:10003800DD01DE01DF01E001E101E201E30183010D
:100048000A128A15922D8312031331088039BB00D6
:100058003108B6003607C100B01F332834283528C8
:1000680041144108031939283A284928410A031D2F
:100078003E283F2847280030B1000030B00000304B
:10008800AF000030AE00B01751280030B10000308A
:10009800B0000030AF000030AE0035088039B6003F
:1000A8003608BB063508B6003607C000B41F5D2801
:1000B8005E285F28401440080319632864287328C1
:1000C800400A031D6828692871280030B5000030EF
:1000D800B4000030B3000030B200B4177B28003001
:1000E800B5000030B4000030B3000030B200400862
:1000F80003197F28802885284108031D842885281E
:100108008E280030B1000030B0000030AF00003061
:10011800AE006B2B2E08A00034080A128A1516258B
:100128000A128A11831203132108C7002008C60087
:100138004608B600B701B801B9013908BF00380848
:10014800BE003708BD003608BC004708B600B70136
:10015800B801B9013908C5003808C4003708C30018
:100168003608C2002F08A00033080A128A1516257F
:100178000A128A11831203132108C7002008C60037
:100188004608B600B701B801B9013608BC073708F8
:1001980003110318013E0319D228BD0738080311BB
:1001A8000318013E0319D928BE073908031103189B
:1001B800013E0319E028BF074708B600B701B80198
:1001C800B9013608C207370803110318013E03199D
:1001D800EE28C307380803110318013E0319F52850
:1001E800C407390803110318013E0319FC28C50781
:1001F8003008A00032080A128A1516250A128A1138
:10020800831203132108C7002008C6004608B60059
:10021800B701B801B9013608BC073708031103183C
:10022800013E03191829BD07380803110318013EB8
:1002380003191F29BE07390803110318013E0319C2
:100248002629BF074708B600B701B801B901360823
:10025800C207370803110318013E03193429C307DD
:10026800380803110318013E03193B29C40739084C
:1002780003110318013E03194229C5070830B600C7
:100288000310BC0DBD0DBE0DBF0DB60B44292F08C4
:10029800A00032080A128A1516250A128A1183123A
:1002A80003132108C7002008C6004608B6004708FF
:1002B800B700B801B9013608BC073708031103189D
:1002C800013E03196829BD07380803110318013EC8
:1002D80003196F29BE07390803110318013E0319D2
:1002E8007629BF072E08A00033080A128A1516259A
:1002F8000A128A11831203132108C7002008C600B6
:100308004608B6004708B700B801B9013608BC0767
:10031800370803110318013E03199329BD0738084C
:1003280003110318013E03199A29BE07390803115E
:100338000318013E0319A129BF070830B6000310AE
:10034800BC0DBD0DBE0DBF0DB60BA3292E08A00018
:1003580032080A128A1516250A128A118312031303
:100368002108C7002008C6004608B6004708B7009D
:10037800B801B9013608BC07370803110318013E54
:100388000319C729BD07380803110318013E0319CB
:10039800CE29BE07390803110318013E0319D529D0
:1003A800BF072F08A00034080A128A1516250A125A
:1003B8008A11831203132108C7002008C6004608C3
:1003C800B6004708B700B801B9013608C2073708B0
:1003D80003110318013E0319F229C3073808031152
:1003E8000318013E0319F929C40739080311031832
:1003F800013E0319002AC5073008A00033080A1275
:100408008A1516250A128A11831203132108C700B8
:100418002008C6004608B6004708B700B801B90169
:100428003608C207370803110318013E03191D2AAD
:10043800C307380803110318013E0319242AC40707
:10044800390803110318013E03192B2AC507300880
:10045800A00034080A128A1516250A128A11831276
:1004680003132108C7002008C6004608B60047083D
:10047800B700B801B90108300310B60DB70DB80DB3
:10048800B90DFF3E031D402A3608C207370803117D
:100498000318013E0319512AC3073808031103182A
:1004A800013E0319582AC407390803110318013EED
:1004B80003195F2AC5073C08B6003D08B7003E0887
:1004C800B8003F08B90018300310B90CB80CB70CC5
:1004D800B60CFF3E031D682A3608C2073708031109
:1004E8000318013E0319792AC307380803110318B2
:1004F800013E0319802AC407390803110318013E75
:100508000319872AC5070830B6000310BC0DBD0DB6
:10051800BE0DBF0DB60B892A41084007B600B701CA
:10052800B70D3608823EC60037080318013EFF3E65
:10053800C700BB2A0130B6000310C20DC30DC40D9D
:10054800C50DB60BA02ABF1FAA2AAB2AAC2A421493
:100558000130B6000310BC0DBD0DBE0DBF0DB60BAE
:10056800AE2AFF30C6070318C70AFF30C707C41FE3
:10057800BE2ABF2A9E2AC001BF1FC32AC42AE02A56
:10058800FF303C05B600FF303D05B700FF303E05A3
:10059800B8007F303F05B9003908380437043604FD
:1005A8000319D72AD82ADB2AC001C00AE02A421C2C
:1005B800DE2ADF2AE02AD82A40080319E42AE52A95
:1005C800162B0130C207003003180130C307003072
:1005D80003180130C407003003180130C507451C53
:1005E800F62AF72A162B4208B6004308B700440833
:1005F800B8004508B9000130BA00390DB90CB80C7B
:10060800B70CB60CBA0B012B3908C5003808C40062
:100618003708C3003608C2000130C6070318C70AE6
:100628000030C7074708803AFF0080307F02031D6B
:100638001F2BFF304602031C222B232B2E2B7F302F
:1006480083120313C5008030C4000030C30000309B
:10065800C2005F2B831203134708803AFF008030E3
:100668007F02031D392B0130460203183C2B3D2B1A
:10067800492B003083120313C5000030C40000303A
:10068800C3000030C200BB015F2B8312031346086E
:10069800C100FF30C205FF30C3057F30C4050030FC
:1006A800C505411C582B592B5A2BC4174108B600B5
:1006B8000310360CC5003B08B6003608C5044508CB
:1006C800B1004408B0004308AF004208AE0008007B
:1006D800B62BA401A40A01300A128A15BE260A12F2
:1006E8008A111F300A128A153F250A128A118312AD
:1006F8000313E1010519812B822B852BE301E30A02
:10070800862BE301851A892B8A2BC82B0A128A119A
:10071800ED270A128A11FD01FD0AC82BA401A40ABB
:1007280001300A128A15BE260A128A113C300A12B2
:100738008A153F250A128A1183120313E101E10A7F
:100748000A128A15B9240A128A1183120313851C06
:10075800AE2BAF2BC82B0A128A11ED270A128A1169
:10076800FD01C82B7D0883120313D300D40154085C
:10077800003A0319C02BC82B5308003A03196D2BF4
:10078800063A0319922BC82B831203138518CD2B15
:10079800CE2BC32D06307D060319D32BD42BA92DC0
:1007A800E101A92DA401A40A01300A128A15BE2666
:1007B8000A128A1110300A128A153F250A128A1164
:1007C800831203138615861463080319EC2BED2B8B
:1007D800FB2B8519F02BF12BC22D861186100A12DE
:1007E8008A11ED270A128A110230FD00CD2D081852
:1007F800FE2BFF2BC22DF12BA401A40A01300A12F3
:100808008A15BE260A128A1101300A128A153F2556
:100818000A128A110A128A156D270A128A110030E3
:10082800831203135E023C3003195D0203181D2C6A
:100838001E2C7A2C86160A128A156D270A128A111E
:1008480083120313A401A40A02300A128A15BE26D1
:100858000A128A117F300A128A153F250A128A1154
:100868000A3083120313A6000030A7005E08A30015
:100878005D08A2006430A0000030A1000A128A15A9
:100888003C260A128A11831203132108A9002008A2
:10089800A8000A128A1578260A128A1183120313ED
:1008A8002608303E0A128A15C9250A128A110A300A
:1008B80083120313A0000030A1005E08A3005D08A6
:1008C800A2000A128A153C260A128A1183120313FF
:1008D8002008303E0A128A15C9250A128A11893061
:1008E8000A128A153F250A128A11CD2D86120A127C
:1008F8008A11ED270A128A110330FD00CD2DA401BB
:10090800A40A01300A128A15BE260A128A114A3030
:100918000A128A153F250A128A1183120313A401A9
:10092800A40A02300A128A15BE260A128A110A304F
:1009380083120313A6000030A7000A30D3005B0817
:100948005302A8005C090318013EA9000A128A157F
:1009580078260A128A11831203132608303E0A12D7
:100968008A15C9250A128A110A3083120313A000B6
:100978000030A1000A30D3005B085302A2005C09D2
:100988000318013EA3000A128A153C260A128A118E
:10099800831203132008303E0A128A15C9250A1249
:1009A8008A118312031363080319DB2CDC2CDE2C59
:1009B8000615E92C003058020630031957020318AF
:1009C800E62CE72CE82CDC2C06110A128A15C32425
:1009D8000A128A110030831203135C020B300319C8
:1009E8005B02031CF82CF92CCD2D0A128A11ED2775
:1009F8000A128A110430FD0083120313DB01DC01A3
:100A0800D701D801CD2DA401A40A01300A128A15F4
:100A1800BE260A128A1165300A128A153F250A1263
:100A28008A11831203130611051A1B2D1C2D1E2D66
:100A38000616CD2D06120A128A11ED270A128A11FE
:100A48000530FD00CD2DA401A40A01300A128A1533
:100A5800BE260A128A112E300A128A153F250A125A
:100A68008A1183120313A401A40A02300A128A15F8
:100A7800BE260A128A110A3083120313A600003018
:100A8800A7000A30D30059085302A8005A090318CE
:100A9800013EA9000A128A1578260A128A118312C1
:100AA80003132608303E0A128A15C9250A128A112C
:100AB8000A3083120313A0000030A1000A30D300CB
:100AC80059085302A2005A090318013EA3000A124A
:100AD8008A153C260A128A11831203132008303E15
:100AE8000A128A15C9250A128A1183120313630888
:100AF80003197F2D802D822D06158D2D003058026B
:100B080006300319570203188A2D8B2D8C2D802D42
:100B180006110A128A15C3240A128A110030831298
:100B280003135A020B3003195902031C9C2D9D2DE7
:100B3800CD2D0A128A11ED270A128A110630FD00FE
:100B480083120313D901DA01042D7D08D300D401DF
:100B58005408003A0319B12DCD2D5308013A031951
:100B6800D62B033A0319002C013A0319832C073AB0
:100B78000319072D013A0319272DCD2DCD2D7D08F9
:100B88000319C72DC82DCD2D0A128A1568250A12FA
:100B98008A1108000B1DD12DD22DB22E3C308312A4
:100BA800031381000B110130FB070318FC0A003006
:100BB800FC076108031DE12DE22D892E792E0A30EC
:100BC800F0000030F1007C08F3007B08F2000A1204
:100BD8008A1502260A128A11700871040319F52D64
:100BE800F62D072E013083120313D7070318D80AEE
:100BF8000030D8070A3057065804031D042E052E66
:100C0800072ED701D8016430F0000030F1007C08CD
:100C1800F3007B08F2000A128A1502260A128A11CA
:100C280070087104031D192E1A2E222E013083120A
:100C38000313DB070318DC0A0030DC07C830F000B8
:100C48000030F1007C08F3007B08F2000A128A15D4
:100C580002260A128A1170087104031D342E352EDB
:100C6800892E83120313E209892E0A30F00000301E
:100C7800F1007C08F3007B08F2000A128A150226AC
:100C88000A128A117008710403194B2E4C2E5D2E1E
:100C9800013083120313D7070318D80A0030D80786
:100CA8000A3057065804031D5A2E5B2E5D2ED701B5
:100CB800D8016430F0000030F1007C08F3007B08B4
:100CC800F2000A128A1502260A128A1170087104A3
:100CD800031D6F2E702E892E013083120313D9073E
:100CE8000318DA0A0030DA07892E7D08F600F701C2
:100CF8007708003A0319812E892E7608033A0319DA
:100D0800E32D063A0319392E892E3230F0000030CF
:100D1800F1007C08F3007B08F2000A128A1502260B
:100D28000A128A1170087104031D9B2E9C2EA72E8F
:100D38008312031361080319A22EA32EA62E0130D5
:100D48008606A72E0610A0307B060F3003197C06F6
:100D5800031DAF2EB02EB22EFB01FC017A088A00CB
:100D680079088400780E8300FE0E7E0E0900831237
:100D78000313A80028080319C22EC32ED72EA31FB9
:100D8800C62EC72ED72E2009AA002109AB0022099A
:100D9800AC002309AD00AA0A0319AB0A0319AC0A6F
:100DA8000319AD0ADF2E2308AD002208AC00210884
:100DB800AB002008AA002308220421042004031DF4
:100DC800E62EE72EF02E0030A3000030A2000030FF
:100DD800A1000030A000742F9630A900002F013028
:100DE800A4002408A90701300310AD0CAC0CAB0C0F
:100DF800AA0CFF3E031DF82EFE302D05031D052FFE
:100E0800062FF32E222F0130A4002408A907013051
:100E1800AA07003003180130AB070030031801306F
:100E2800AC07003003180130AD0701300310AD0CDA
:100E3800AC0CAB0CAA0CFF3E031D1A2FFF302D057E
:100E4800031D272F282F072F342F0130A902013027
:100E5800A4000310AA0DAB0DAC0DAD0DA40B2D2FE6
:100E6800AC1B372F382F3E2F0230290203183D2F95
:100E78003E2F292F2918412F422F4A2FFF30AA052C
:100E8800FF30AB057F30AC05FF30AD050310A90C72
:100E98002908A400A501A601A70118300310A40D74
:100EA800A50DA60DA70DFF3E031D522F2408AA0469
:100EB8002508AB042608AC042708AD042808031944
:100EC800662F672F6C2FA31F6A2F6B2F6C2FAD1700
:100ED8002D08A3002C08A2002B08A1002A08A000B6
:100EE80008000310831203134A0D4B0DD10051085B
:100EF800031D7F2F802F892F0030CB000030CA00C0
:100F08000030C9000030C800EC2F4808CC00490860
:100F1800CD004A08CE004B08CF001F300310CF0C7D
:100F2800CE0CCD0CCC0CFF3E031D922F4C08D000EC
:100F3800CA17FF30C805FF30C905FF30CA050030A1
:100F4800CB059630D102D11FAA2FAB2FC52F510840
:100F5800803A973E0318B12FB22FB32F802F01305C
:100F68000310CB0CCA0CC90CC80CFF3E031DB42FD0
:100F78000130CC004C08D107031DC32FC42FB32F59
:100F8800DC2F20305102031CCA2FCB2FD72F802FE4
:100F98000130CC000310C80DC90DCA0DCB0DCC0B08
:100FA800CE2F0130D1025108031DDB2FDC2FCC2FAF
:100FB80050080319E02FE12FEC2FC809C909CA0905
:100FC800CB09C80A0319C90A0319CA0A0319CB0AA3
:100FD800080000300A128A15DA240A128A11013030
:0C0FE8000A128A15DA240A128A11080085
:1010000008308A000408840A8207003448346534B2
:101010006134743469346E346734203420342034BD
:10102000203420342034203400344334613470348C
:1010300020346E3475346F346334203420342034DB
:1010400020342034203400345334743461346E340A
:101050006434203442347934203420342034203431
:101060002034203400345634613474342034203435
:1010700020342034203420342034203420342034D0
:101080000034463469346E3469347334683420343F
:101090002034203420342034203420340034573499
:1010A00061347334683469346E34673420342034E6
:1010B00020342034203420340034203420342034B0
:1010C0002034203420342034203420342034203480
:1010D000203400345834613420346E3475346F3425
:1010E0006334203420342034203420340034573406
:1010F000413452344E3449344E3447342034213450
:1011000021342134213400344E3468346934653458
:101110007434203464346F343A3400342F34363429
:041120003034003433
:1019720083120313061386130611861086110612AC
:1019820086120800831203136218C82CCC2C83120F
:1019920003130617CF2C831203130613621CD22CD7
:1019A200D62C831203138617D92C831203138613A2
:1019B200080083120313A300081123080A128A15D0
:1019C200F6240A128A158312031388151A30831219
:1019D2000313A200F730A100A10BED2CA20BED2CFA
:1019E200F22C831203138811080083120313A00040
:1019F200201CFC2CFD2CFF2C0816002D0812A01C0C
:101A0200032D042D062D8816072D8812201D0A2D60
:101A12000B2D0D2D08170E2D0813A01D112D122DA3
:101A2200142D8817152D8813080083120313A8009C
:101A3200A401A5012008A200A3012208A6002308F0
:101A4200A700281C252D262D2C2D2608A4070318B7
:101A5200A50A2708A50701300310A60DA70DFF3E12
:101A6200031D2D2D0310A80C2808031D392D3A2D16
:101A7200222D2508A1002408A000080083120313C8
:101A8200A700A501A6015A2D2508270784000A12DE
:101A92008A1500200A128A150A128A15C9250A1205
:101AA2008A15013083120313A5070318A60A003012
:101AB200A6072508270784000A128A1500200A12A1
:101AC2008A15003A031D662D672D452D08008312E5
:101AD2000313A401A40A01300A128A15BE260A12AF
:101AE2008A1572300A128A153F250A128A15831244
:101AF2000313A401A40A02300A128A15BE260A128E
:101B02008A1558300A128A153F250A128A1583123D
:101B12000313E101E10A0A128A15B9240A128A158D
:101B22000800831203138601831603138601013012
:101B3200831203138800831603138800FF30850085
:101B420008140A128A150A270A128A150730831600
:101B520003138100A0308B008130831203139F0096
:101B62008E30831603139F00213083120313D60095
:101B72007530D500D50BBB2DD60BBB2DC02D0A124F
:101B82008A116C230A128A15C02D0A128A110E2894
:101B920083120313A40024080F39A2002408F03989
:101BA200A30008152308A10004300310A10CFF3E76
:101BB200031DD62D21080A128A15F6240A128A1547
:101BC200831203138815413083120313A100A10B62
:101BD200E82DEB2D83120313881122080A128A15AD
:101BE200F6240A128A1583120313881541308312D0
:101BF2000313A100A10BFB2DFE2D831203138811E9
:101C02000800700871040319072E082E372EF501FB
:101C1200F50A162E01300310F00DF10DFF3E031DE3
:101C22000C2E0130F4007408F507F11F192E1A2E3C
:101C32000B2E71087302031D202E70087202031C02
:101C4200232E242E2A2E7008F2027108031CF3039D
:101C5200F30201300310F10CF00CFF3E031D2B2E9A
:101C62000130F502031D362E372E1A2E7308F100AD
:101C72007208F000080083120313200821040319DC
:101C8200432E442E732EA501A50A522E01300310B5
:101C9200A00DA10DFF3E031D482E0130A400240813
:101CA200A507A11F552E562E472E21082302031DDC
:101CB2005C2E20082202031C5F2E602E662E200856
:101CC200A2022108031CA303A30201300310A10CEA
:101CD200A00CFF3E031D672E0130A502031D722ECC
:101CE200732E562E2308A1002208A000080083129A
:101CF2000313AB01AC01260827040319812E822E9F
:101D0200B92EAD01AD0A902E01300310A60DA70D1C
:101D1200FF3E031D862E0130AA002A08AD07A71F29
:101D2200932E942E852E01300310AB0DAC0DFF3E89
:101D3200031D952E27082902031DA12E260828021D
:101D4200031CA42EA52EAC2E2608A8022708031CCD
:101D5200A903A9022B1401300310A70CA60CFF3E05
:101D6200031DAD2E0130AD02031DB82EB92E942EE7
:101D72002C08A7002B08A600080083120313A60054
:101D82002603031DC52EC62EE52E24087F3EA9007C
:101D92002908A50004300310A50CFF3E031DCC2E1C
:101DA2002508A70029080F39A80027080A128A1552
:101DB200DA240A128A158312031328080A128A15D2
:101DC200DA240A128A15092F02302606031DEA2E8A
:101DD200EB2E092F2408BF3EA9002908A5000430D4
:101DE2000310A50CFF3E031DF12E2508A7002908AC
:101DF2000F39A80027080A128A15DA240A128A154E
:101E02008312031328080A128A15DA240A128A1581
:101E1200080000300A128A15F6240A128A15823046
:101E220083120313A500DD30A400A40B162FA50B0B
:101E3200162F03300A128A15DA240A128A15213063
:101E420083120313A5007530A400A40B262FA50B43
:101E5200262F2B2F03300A128A15DA240A128A152A
:101E6200483083120313A5006B30A400A40B372F54
:101E7200A50B372F3C2F03300A128A15DA240A12D7
:101E82008A1502300A128A15DA240A128A150230D9
:101E92000A128A15DA240A128A1508300A128A15D9
:101EA200DA240A128A1500300A128A15DA240A1272
:101EB2008A150C300A128A15DA240A128A150030A1
:101EC2000A128A15DA240A128A1506300A128A15AB
:101ED200DA240A128A150800831203131F151F1928
:101EE200732F742F702F1E08E000831603131E0831
:101EF20083120313DF0000306002CD3003195F024A
:101F0200031C842F852FC22F5F08333EA000600878
:101F12000318013EFF3EA100A201A30100300A12F4
:101F22008A11BB260A128A15831203132308B500ED
:101F32002208B4002108B3002008B2003E30B100EC
:101F42007A30B0005E30AF003530AE000A128A112E
:101F520027200A128A15831203133108CB00300896
:101F6200CA002F08C9002E08C8000A128A11752754
:101F72000A128A15831203134908DE004808DD009D
:101F8200FF2FCD30D2005F085202A0006009031873
:101F9200013EA100A201A30100300A128A11BB2650
:101FA2000A128A15831203132308B5002208B4000B
:101FB2002108B3002008B2003E30B1007A30B000F0
:101FC2005E30AF003530AE000A128A1127200A12A5
:101FD2008A15831203133108CB003008CA002F0878
:101FE200C9002E08C8000A128A1175270A128A151A
:0E1FF200831203134908DE004808DD000800D2
:08400000FF3FFF3FFF3FFF3FC0
:02400E00FB3F76
:00000001FF
