:060000000A128A11FC2F18
:100F540083160313081088108312031308148814CB
:100F6400081088100630F2001330F100AD30F000A4
:100F7400F00BBA2FF10BBA2FF20BBA2FC12F831239
:100F84000313081488140630F2001330F100AD3056
:100F9400F000F00BCB2FF10BCB2FF20BCB2FD22F7A
:100FA40083120313081488100630F2001330F10082
:100FB400AD30F000F00BDC2FF10BDC2FF20BDC2F4B
:100FC400E32F83120313081088140630F200133041
:100FD400F100AD30F000F00BED2FF10BED2FF20B23
:100FE400ED2FF42F8312031308108810B22F0A1266
:0C0FF4008A11002883010A128A11AA2F1A
:08400000FF3FFF3FFF3FFF3FC0
:02400E007A3FF7
:00000001FF
