:060000000A128A110E280D
:10000800FE00030EF8000408F9000A08FA000A12B4
:100018008A112D280A128A11112883133A30FD00FB
:100028000130FE00E630FF00303084000A128A11E9
:10003800BA210A128A112030840030300A128A113B
:10004800F0210A128A11FB01FC0183010A128A11AC
:1000580099298B1E30283128BF280B1D34283528B4
:10006800BF2805308312031381000B110A128A116D
:1000780046210A128A116430F0000030F100831220
:1000880003132708F3002608F2000A128A11C82071
:100098000A128A11710883120313A9007008A800B4
:1000A8006430F0000030F1002708F3002608F20061
:1000B8000A128A110C210A128A1171088312031379
:1000C800A5007008A4000A30F0000030F1002508EF
:1000D800F3002408F2000A128A11C8200A128A11B1
:1000E800710883120313AB007008AA000A30F000ED
:1000F8000030F1002508F3002408F2000A128A11E2
:100108000C210A128A11710883120313AD007008BA
:10011800AC000130FB070318FC0A0030FC07033071
:100128007B067C04031D99289A289C28FB01FC0166
:100138000130A0070318A10A0030A1070D302006DE
:100148002104031DA828A928BF28A001A101003067
:10015800F000F1000A128A117A210A128A11710834
:1001680083120313A3007008A2002208303E840003
:100178008313000886007A088A0079088400780EBC
:100188008300FE0E7E0E0900F501F6017008710469
:100198000319CF28D0280729F701F70ADE280130EC
:1001A8000310F00DF10DFF3E031DD4280130F400BB
:1001B8007408F707F11FE128E228D328013003105B
:1001C800F50DF60DFF3E031DE32871087302031DAC
:1001D800EF2870087202031CF228F328FA28700826
:1001E800F2027108031CF303F302751401300310C3
:1001F800F10CF00CFF3E031DFB280130F702031D34
:1002080006290729E2287608F1007508F000080099
:10021800700871040319112912294129F501F50AF9
:10022800202901300310F00DF10DFF3E031D1629A2
:100238000130F4007408F507F11F23292429152932
:1002480071087302031D2A2970087202031C2D29E4
:100258002E2934297008F2027108031CF303F302F3
:1002680001300310F10CF00CFF3E031D352901305D
:10027800F502031D4029412924297308F100720859
:10028800F0000800FF308312031386006929081064
:10029800881408152808303E840083130008860057
:1002A80079290814881008152A08303E8400831319
:1002B8000008860079290814881408112C08303E93
:1002C800840083130008860079297C08003A031902
:1002D8006E2979297B08003A03194B29013A031939
:1002E8005529033A03195F29792908007008F20093
:1002F8007207F3007308831203139F040D30F30091
:10030800FB30F200F20B8629F30B86298B29831226
:1003180003131F151F19912992298E291E08F10010
:10032800831603131E08F000080006308316031313
:100338009F00860188130810881008118312031380
:1003480086018316031386010A128A11D8210A121C
:100358008A110A128A11C9210A128A11B2290A12AB
:100368008A110E287E088A007F0882000A128A11E4
:10037800B6210A128A118000840A04087D0603192E
:100388000034FF0A0319FE0ABA29FF308316031343
:100398008500F0309F000130831203139F009E01F7
:1003A800831603139E01080083160313811281111B
:1003B80001108114011105308312031381008B167B
:1003C8008B170800C034F934A434B034993492340B
:1003D8008234F8348034903464008001840A04063E
:0803E800031900340406F12999
:08400000FF3FFF3FFF3FFF3FC0
:02400E00FA3F77
:00000001FF
