:020000040000FA
:060000000A128A11FC2F18
:100F3C00F000700883120313930008008316031348
:100F4C00141CA92FAA2FAC2F0130AD2F0030080094
:100F5C008316031387120716940120308312031390
:100F6C00940083160313871508000A128A11AE2702
:100F7C000A128A11AA30F500750883120313AA000D
:100F8C001130F5007508AB002230F5007508AC0087
:100F9C000A128A11A4270A128A11003A0319D72FB0
:100FAC00D82FCE2F831203131308F5003408203EDC
:100FBC00840075088313800034082A3E84000008DE
:100FCC000A128A119E270A128A110130F50075083F
:100FDC0083120313B40704303406031DF62FF72FC6
:100FEC00CE2FB401CE2F0A128A11002883010A12C7
:040FFC008A11BB2F6C
:00000001FF
